:020000040800F2
:100000007806002039020008410200084302000877
:1000100045020008470200084902000800000000ED
:100020000000000000000000000000004B0200087B
:100030004D020008000000004F02000851020008B5
:10004000530200085302000853020008530200083C
:10005000530200085302000853020008530200082C
:10006000530200085302000853020008530200081C
:10007000530200085302000853020008530200080C
:100080005302000853020008530200080000000059
:100090000000000000000000000000005302000803
:1000A00053020008530200085302000853020008DC
:1000B00053020008530200085302000853020008CC
:1000C00053020008530200085302000853020008BC
:1000D0005302000853020008530200080000000009
:1000E00053020008530200085302000800000000F9
:1000F00000000000000000000000000053020008A3
:1001000000000000530200085302000853020008D8
:1001100000000000000000000000000000000000DF
:10012000530200085302000853020008530200085B
:100130005302000800000000000000000000000062
:100140000000000000000000000000005302000852
:10015000530200085302000853020008530200082B
:1001600053020008530200080000000000000000D5
:10017000000000000000000000000000000000007F
:100180000000000053020008000000000000000012
:10019000530200085302000800F002F800F03CF897
:1001A0000AA090E8000C82448344AAF10107DA45D2
:1001B00001D100F031F8AFF2090EBAE80F0013F0E8
:1001C000010F18BFFB1A43F001031847D8050000C0
:1001D000F8050000103A24BF78C878C1FAD8520751
:1001E00024BF30C830C144BF04680C6070470000B1
:1001F0000023002400250026103A28BF78C1FBD830
:10020000520728BF30C148BF0B6070471FB500F0D0
:10021000BCFA1FBD10B510BD00F031F81146FFF754
:10022000F5FF00F09BF900F04FF803B4FFF7F2FF81
:1002300003BC00F057F80000094880470948004710
:10024000FEE7FEE7FEE7FEE7FEE7FEE7FEE7FEE786
:10025000FEE7FEE704480549054A064B70470000E3
:100260004905000899010008780000207806002060
:10027000780200207802002070477047704775466A
:1002800000F02CF8AE4605006946534620F0070002
:10029000854618B020B5FFF7DDFFBDE820404FF0E0
:1002A00000064FF000074FF000084FF0000BAC467F
:1002B000ACE8C009ACE8C009ACE8C009ACE8C009CA
:1002C00021F007018D46704710B50446AFF300805A
:1002D0002046BDE81040FFF7A8BF00000048704767
:1002E0000800002001491820ABBEFEE726000200EE
:1002F0007047000080B584B003900291019203988A
:100300000021C4F20201884203D1FFE700F0A2F805
:10031000FFE7039840F20041C4F20201884203D192
:10032000FFE700F0A3F8FFE7039840F60001C4F2EE
:100330000201884203D1FFE700F0A4F8FFE7039829
:1003400040F60041C4F20201884203D1FFE700F009
:10035000A5F8FFE7039841F20001C4F202018842C8
:1003600003D1FFE700F0A6F8FFE7039841F600414C
:10037000C4F20201884203D1FFE700F0A7F8FFE7CB
:1003800003980299019A00F003F804B080BD0000C0
:1003900083B002900191009201984100032000FA7D
:1003A00001F2029908689043086000980199490099
:1003B00000FA01F2029908681043086003B0704720
:1003C00083B002900191009201984100032000FA4D
:1003D00001F20299C8689043C860009801994900E9
:1003E00000FA01F20299C8681043C86003B0704770
:1003F00083B0029001910020009002980069019959
:10040000C840C00718B1FFE70120009002E00020BB
:100410000090FFE7009803B07047000083B002909F
:10042000019100920098012809D1FFE7019901206C
:1004300000FA01F2029948691043486108E0019905
:10044000012000FA01F20299486990434861FFE7F0
:1004500003B0704780B500F045F843F63001C4F2B0
:100460000201086840F00100086080BD80B500F01E
:1004700039F843F63001C4F20201086840F0020086
:10048000086080BD80B500F02DF843F63001C4F25D
:100490000201086840F00400086080BD80B500F0EB
:1004A00021F843F63001C4F20201086840F004006C
:1004B000086080BD80B500F015F843F63001C4F245
:1004C0000201086840F00400086080BD80B500F0BB
:1004D00009F843F63001C4F20201086840F0040054
:1004E000086080BD43F60001C4F20201086840F0D4
:1004F00001000860FFE743F60000C4F20200006854
:100500008007002801D4FFE7F5E743F60801C4F2AD
:100510000201086820F00300086008680860FFE72F
:1005200043F60800C4F20200006810F00C0F01D07E
:10053000FFE7F5E740F20001C2F2000142F200409D
:10054000C0F2F400086070474EF68851CEF2000108
:10055000086840F4700008607047000080B582B001
:100560000020019000F0D6F8FFE740F60000C4F24A
:1005700002000D21FFF73CFF014640F26800C2F285
:10058000000001600068D8B9FFE740F27000C2F2D5
:1005900000000068012813D1FFE740F26C00C2F2AE
:1005A00000000168013101600068042807D3FFE7FB
:1005B00040F26C01C2F2000100200860FFE7FFE793
:1005C00040F26800C2F20000006840F27001C2F21E
:1005D0000001086000F0D0F8C7E7000080B58EB0D9
:1005E0008DF837009DF83700E8B9FFE70020C4F226
:1005F00002000A9005210122FFF710FF0A98062148
:100600000B9100220C92FFF709FF0A980C9A072120
:10061000FFF704FF0B990C9A40F20040C4F202006D
:10062000FFF7FCFE68E09DF8370001281DD1FFE7C9
:100630000020C4F202000790052100220992FFF772
:10064000EDFE0798062108910122FFF7E7FE0798C3
:10065000099A0721FFF7E2FE0899099A40F2004043
:10066000C4F20200FFF7DAFE45E09DF837000228E9
:100670001DD1FFE70020C4F20200049005210022F2
:100680000692FFF7CBFE0498069A06210591FFF724
:10069000C5FE049807210122FFF7C0FE0599069ABE
:1006A00040F20040C4F20200FFF7B8FE22E09DF8DD
:1006B000370003281DD1FFE70020C4F2020001909B
:1006C000052100220292FFF7A9FE0198029A062155
:1006D0000391FFF7A3FE0198029A0721FFF79EFE00
:1006E000039940F20040C4F202000122FFF796FE97
:1006F000FFE7FFE7FFE7FFE70EB080BD80B584B0FE
:1007000003900291019203980299019AFFF7F2FD7A
:1007100004B080BD80B586B0FFF7E4FE40F600006F
:10072000C4F2020001900D2102910022FFF7E2FDC8
:100730000198029901220592FFF742FE059A0020D6
:10074000C4F2020003900521FFF7D8FF0398059A31
:1007500006210491FFF7D2FF0398059A0721FFF7BE
:10076000CDFF0499059A40F20040C4F20200FFF761
:10077000C5FF06B080BD000080B540F26C00C2F23B
:1007800000000078FFF72AFF80BDF1EE100A4FF657
:10079000FF71C0F2C03120EA010040F04070E1EE8C
:1007A000100A7047C8070008000000200800000079
:1007B000D4010008D00700080800002070060000DF
:1007C000F0010008000000000024F4000000000018
:040000050800019955
:00000001FF
