:020000040800F2
:10000000700600203902000841020008430200087F
:1000100045020008470200084902000800000000ED
:100020000000000000000000000000004B0200087B
:100030004D020008000000004F02000851020008B5
:10004000530200085302000853020008530200083C
:10005000530200085302000853020008530200082C
:10006000530200085302000853020008530200081C
:10007000530200085302000853020008530200080C
:100080005302000853020008530200080000000059
:100090000000000000000000000000005302000803
:1000A00053020008530200085302000853020008DC
:1000B00053020008530200085302000853020008CC
:1000C00053020008530200085302000853020008BC
:1000D0005302000853020008530200080000000009
:1000E00053020008530200085302000800000000F9
:1000F00000000000000000000000000053020008A3
:1001000000000000530200085302000853020008D8
:1001100000000000000000000000000000000000DF
:10012000530200085302000853020008530200085B
:100130005302000800000000000000000000000062
:100140000000000000000000000000005302000852
:10015000530200085302000853020008530200082B
:1001600053020008530200080000000000000000D5
:10017000000000000000000000000000000000007F
:100180000000000053020008000000000000000012
:10019000530200085302000800F002F800F03CF897
:1001A0000AA090E8000C82448344AAF10107DA45D2
:1001B00001D100F031F8AFF2090EBAE80F0013F0E8
:1001C000010F18BFFB1A43F001031847580600003F
:1001D00078060000103A24BF78C878C1FAD85207D0
:1001E00024BF30C830C144BF04680C6070470000B1
:1001F0000023002400250026103A28BF78C1FBD830
:10020000520728BF30C148BF0B6070471FB500F0D0
:10021000FBFA1FBD10B510BD00F031F81146FFF715
:10022000F5FF00F0C9F900F04FF803B4FFF7F2FF53
:1002300003BC00F057F80000094880470948004710
:10024000FEE7FEE7FEE7FEE7FEE7FEE7FEE7FEE786
:10025000FEE7FEE704480549054A064B70470000E3
:10026000A505000899010008700000207006002014
:10027000700200207002002070477047704775467A
:1002800000F02CF8AE4605006946534620F0070002
:10029000854618B020B5FFF7DDFFBDE820404FF0E0
:1002A00000064FF000074FF000084FF0000BAC467F
:1002B000ACE8C009ACE8C009ACE8C009ACE8C009CA
:1002C00021F007018D46704710B50446AFF300805A
:1002D0002046BDE81040FFF7A8BF00000048704767
:1002E0000800002001491820ABBEFEE726000200EE
:1002F0007047000080B584B003900291019203988A
:100300000021C4F20201884203D1FFE700F0D0F8D7
:10031000FFE7039840F20041C4F20201884203D192
:10032000FFE700F0D1F8FFE7039840F60001C4F2C0
:100330000201884203D1FFE700F0D2F8FFE70398FB
:1003400040F60041C4F20201884203D1FFE700F009
:10035000D3F8FFE7039841F20001C4F2020188429A
:1003600003D1FFE700F0D4F8FFE7039841F600411E
:10037000C4F20201884203D1FFE700F0D5F8FFE79D
:1003800003980299019A00F003F804B080BD0000C0
:1003900083B002900191009201984100032000FA7D
:1003A00001F2029908689043086000980199490099
:1003B00000FA01F2029908681043086003B0704720
:1003C00083B002900191009201984100032000FA4D
:1003D00001F2029988689043886000980199490069
:1003E00000FA01F2029988681043886003B07047F0
:1003F00083B00290019100920199012000FA01F26C
:1004000002994868904348600098019900FA01F207
:10041000029948681043486003B0704783B0029067
:100420000191009201984100032000FA01F2029923
:10043000C8689043C86000980199490000FA01F229
:100440000299C8681043C86003B0704783B0029037
:10045000019100200090029800690199C840C007EE
:1004600018B1FFE70120009002E000200090FFE7B4
:10047000009803B07047000083B002900191009291
:100480000098012809D1FFE70199012000FA01F243
:10049000029948691043486108E00199012000FA77
:1004A00001F20299486990434861FFE703B0704741
:1004B00080B500F045F843F63001C4F20201086847
:1004C00040F00100086080BD80B500F039F843F6C7
:1004D0003001C4F20201086840F00200086080BDEB
:1004E00080B500F02DF843F63001C4F2020108682F
:1004F00040F00400086080BD80B500F021F843F6AC
:100500003001C4F20201086840F00400086080BDB8
:1005100080B500F015F843F63001C4F20201086816
:1005200040F00400086080BD80B500F009F843F693
:100530003001C4F20201086840F00400086080BD88
:1005400043F60001C4F20201086840F001000860AF
:10055000FFE743F60000C4F20200006880070028AD
:1005600001D4FFE7F5E743F60801C4F20201086889
:1005700020F00300086008680860FFE743F6080001
:10058000C4F20200006810F00C0F01D0FFE7F5E79D
:1005900040F20001C2F2000142F20040C0F2F40059
:1005A000086070474EF68851CEF20001086840F4AA
:1005B000700008607047000080B58AB00020099084
:1005C00000F0C4F8FFE740F60000C4F202000D217D
:1005D000FFF73CFF002840F0B880FFE740F26800DA
:1005E000C2F20000006818BBFFE70020C4F202005E
:1005F00006900C2101220892FFF73EFF06980B217E
:1006000000220792FFF738FF0698079A0A21FFF7A2
:1006100033FF079A40F20040C4F202000921FFF7BD
:100620002BFF089840F26801C2F20001086080E0E8
:1006300040F26800C2F200000068012822D1FFE702
:100640000020C4F2020004900C2100220592FFF762
:1006500013FF04980B210122FFF70EFF0498059A5F
:100660000A21FFF709FF059A40F20040C4F2020098
:100670000921FFF701FF40F26801C2F200010220E8
:10068000086055E040F26800C2F2000000680228ED
:1006900022D1FFE70020C4F2020002900C210022C8
:1006A0000392FFF7E9FE0298039A0B21FFF7E4FE9D
:1006B00002980A210122FFF7DFFE039A40F2004070
:1006C000C4F202000921FFF7D7FE40F26801C2F22E
:1006D0000001032008602AE040F26800C2F2000036
:1006E0000068032822D1FFE70020C4F20200009036
:1006F0000C2100220192FFF7BFFE0098019A0B2106
:10070000FFF7BAFE0098019A0A21FFF7B5FE40F202
:100710000040C4F2020009210122FFF7ADFE01985A
:1007200040F26801C2F200010860FFE7FFE7FFE75F
:10073000FFE7FFE740F60000C4F202000D21FFF7DB
:1007400085FE08B9FFE7F5E7FFE73CE780B58AB02B
:10075000FFF7F6FE40F60000C4F2020007900D21FC
:1007600008910022FFF7C6FD0020C4F202000290AB
:100770000C21009101220992FFF7BCFD0298099A11
:100780000B210191FFF7B6FD0298099A0A21039106
:10079000FFF7B0FD099A40F20040C4F20200049055
:1007A00009210591FFF7A6FD00990298099AFFF724
:1007B0001FFE01990298099AFFF71AFE0298039901
:1007C000099AFFF715FE04980599099AFFF710FE9C
:1007D0000099029802220692FFF7F2FD0199029811
:1007E000069AFFF7EDFD02980399069AFFF7E8FDD8
:1007F00004980599069AFFF7E3FD07980899099A66
:10080000FFF70CFE0AB080BDF1EE100A4FF6FF7143
:10081000C0F2C03120EA010040F04070E1EE100A61
:100820007047000048080008000000200800000091
:10083000D4010008500800080800002068060000E5
:10084000F0010008000000000024F4000000000097
:040000050800019955
:00000001FF
