:020000040800F2
:10000000C00600203902000841020008430200082F
:1000100045020008470200084902000800000000ED
:100020000000000000000000000000004B0200087B
:100030004D020008000000004F020008150A0008E9
:10004000530200085302000853020008530200083C
:10005000530200085302000853020008530200082C
:10006000530200085302000853020008530200081C
:10007000530200085302000853020008530200080C
:100080005302000853020008530200080000000059
:100090000000000000000000000000005302000803
:1000A00053020008530200085302000853020008DC
:1000B00053020008530200085302000853020008CC
:1000C00053020008530200085302000853020008BC
:1000D0005302000853020008530200080000000009
:1000E000F502000853020008530200080000000057
:1000F00000000000000000000000000053020008A3
:1001000000000000530200085302000853020008D8
:1001100000000000000000000000000000000000DF
:10012000530200085302000853020008530200085B
:100130005302000800000000000000000000000062
:100140000000000000000000000000005302000852
:10015000530200085302000853020008530200082B
:1001600053020008530200080000000000000000D5
:10017000000000000000000000000000000000007F
:100180000000000053020008000000000000000012
:10019000530200085302000800F002F800F03CF897
:1001A0000AA090E8000C82448344AAF10107DA45D2
:1001B00001D100F031F8AFF2090EBAE80F0013F0E8
:1001C000010F18BFFB1A43F0010318478C0A000007
:1001D000AC0A0000103A24BF78C878C1FAD8520798
:1001E00024BF30C830C144BF04680C6070470000B1
:1001F0000023002400250026103A28BF78C1FBD830
:10020000520728BF30C148BF0B6070471FB500F0D0
:1002100016FD1FBD10B510BD00F031F81146FFF7F7
:10022000F5FF00F0CFFC00F04FF803B4FFF7F2FF4A
:1002300003BC00F057F80000094880470948004710
:10024000FEE7FEE7FEE7FEE7FEE7FEE7FEE7FEE786
:10025000FEE7FEE704480549054A064B70470000E3
:10026000890A000899010008C0000020C00600208B
:10027000C0020020C00200207047704770477546DA
:1002800000F02CF8AE4605006946534620F0070002
:10029000854618B020B5FFF7DDFFBDE820404FF0E0
:1002A00000064FF000074FF000084FF0000BAC467F
:1002B000ACE8C009ACE8C009ACE8C009ACE8C009CA
:1002C00021F007018D46704710B50446AFF300805A
:1002D0002046BDE81040FFF7A8BF00000048704767
:1002E0003800002001491820ABBEFEE726000200BE
:1002F0007047000080B50D2000F050FC30B1FFE7E2
:1003000000F066FB0D2000F03DFCFFE780BD000023
:1003100080B586B0059004910392029343F64401A0
:10032000C4F20201086840F480400860059800218A
:10033000C4F20201884203D1FFE70020019026E0C9
:10034000059840F20041C4F20201884203D1FFE760
:10035000012001901AE0059840F60001C4F2020164
:10036000884203D1FFE7022001900EE0059840F695
:100370000041C4F20201884203D1FFE7032001904B
:1003800002E004200190FFE7FFE7FFE7FFE70498A2
:10039000C11700EB917121F00301411A8A000F216E
:1003A00001FA02F320F0030143F60802C4F201024D
:1003B00088589843885001990498C31700EB9373A9
:1003C00023F00303C31A9B0001FA03F320F0030197
:1003D000885818438850039860B9FFE704990120B2
:1003E00000FA01F243F60C41C4F20101086810431F
:1003F00008602BE0039801280CD1FFE70499012045
:1004000000FA01F243F60841C4F201010868104302
:1004100008601AE00398022816D1FFE7049901202A
:1004200000FA01F343F60842C4F2010211681943CD
:100430001160049900FA01F243F60C41C4F2010183
:10044000086810430860FFE7FFE7FFE70499012011
:1004500000FA01F243F60041C4F2010108681043BA
:100460000860002000900498042804DCFFE704984A
:10047000063000900AE00498092803DCFFE7172003
:10048000009002E028200090FFE7FFE79DF90000C0
:10049000029900F033FB9DF9000000F0FFFA06B06E
:1004A00080BD000080B584B0039002910192039852
:1004B0000021C4F20201884203D1FFE700F0BAF83C
:1004C000FFE7039840F20041C4F20201884203D1E1
:1004D000FFE700F0B9F8FFE7039840F60001C4F227
:1004E0000201884203D1FFE700F0B8F8FFE7039864
:1004F00040F60041C4F20201884203D1FFE700F058
:10050000B7F8FFE7039841F20001C4F20201884204
:1005100003D1FFE700F0B6F8FFE7039841F600418A
:10052000C4F20201884203D1FFE700F0B5F8FFE70B
:1005300003980299019A00F003F804B080BD00000E
:1005400083B002900191009201984100032000FACB
:1005500001F20299086890430860009801994900E7
:1005600000FA01F2029908681043086003B070476E
:1005700083B002900191009201984100032000FA9B
:1005800001F20299886890438860009801994900B7
:1005900000FA01F2029988681043886003B070473E
:1005A00083B00290019100920199012000FA01F2BA
:1005B00002994868904348600098019900FA01F256
:1005C000029948681043486003B0704783B00290B6
:1005D0000191009201984100032000FA01F2029972
:1005E000C8689043C86000980199490000FA01F278
:1005F0000299C8681043C86003B0704783B0029086
:10060000019100920098012809D1FFE7019901208A
:1006100000FA01F2029948691043486108E0019923
:10062000012000FA01F20299486990434861FFE70E
:1006300003B0704743F63001C4F20201086840F08D
:10064000010008607047000043F63001C4F2020167
:10065000086840F0020008607047000043F630016F
:10066000C4F20201086840F004000860704700000E
:1006700043F63001C4F20201086840F0040008604B
:100680007047000043F63001C4F20201086840F0F0
:10069000040008607047000043F63001C4F2020114
:1006A000086840F0040008607047000081B043F61D
:1006B0000041C4F20201086820F0070008600868E1
:1006C00040F00200086043F60001C4F2020108682D
:1006D00040F001000860FFE743F60000C4F20200AA
:1006E00000688007002801D4FFE7F5E743F6000122
:1006F000C4F20201086820F08070086043F604022A
:10070000C4F202020092106820F4800010601068A9
:1007100010601068542363F38E1010601068082373
:1007200063F305001060106820F440301060086822
:1007300040F080700860FFE743F60000C4F202005A
:10074000006800F000710020B0EB516F01D0FFE7AE
:10075000F2E743F60801C4F20201086820F0030042
:100760000860086840F002000860FFE743F60800F0
:10077000C4F20200006800F00C00082801D0FFE776
:10078000F4E743F60801C4F20201086820F0F00023
:100790000860086820F4E0500860086840F4805061
:1007A0000860086820F46040086040F20001C2F26E
:1007B00000014BF60050C0F20150086001B07047D4
:1007C00080B586B0DDF82CC0DDF828C0DDF824C087
:1007D000DDF820C00590049103920293059840F241
:1007E0009C01C2F200010860049848600398886088
:1007F0000298C86008980861099848610A98886159
:100800000B98C8610598049900220092FFF7DEFE5C
:10081000009A05980499FFF7C3FE059804990222EF
:100820000192FFF7A5FE009A03980299FFF7CEFE0A
:10083000009A03980299FFF7B3FE019A0398029970
:10084000FFF796FE009A03980999FFF7BFFE009AFA
:1008500003980999FFF7A4FE019A03980999FFF7F5
:1008600087FE009A03980B99FFF7B0FE009A039851
:100870000B99FFF795FE019A03980B99FFF778FE05
:1008800006B080BD80B584B0039002910298012823
:100890003ED1FFE740F29C01C2F2000100910868DE
:1008A0004968039A02EB420340F20402C2F20002DA
:1008B000019212F82320C2F3C002FFF79FFE0099B5
:1008C000019A8868C968039B03EB430312F823204D
:1008D000C2F38002FFF792FE0099019A0869496904
:1008E000039B03EB430312F82320C2F34002FFF7FC
:1008F00085FE0099019A8869C969039B03EB43034C
:1009000012F8232002F008025208FFF777FE04E0F5
:10091000029808B9FFE7FFE7FFE704B080BD0000D9
:1009200081B000900098C1024EF6602090FBF1F07B
:1009300040F23401C2F20001086001B070470000CB
:1009400080B584B00390029101920020009003983A
:1009500040F29C01C2F200010862FFE740F29C00F5
:10096000C2F20000006A80B3FFE7019801280FD1AE
:10097000FFE7009800EB400140F20400C2F20000E3
:1009800000EB8100029900EB8100406800900FE0CD
:10099000019860B9FFE7009800EB400140F20400C5
:1009A000C2F2000000EB810080680090FFE7FFE7E3
:1009B00000980199FFF766FFFFE740F29C01C2F241
:1009C0000001086A01380862C8E704B080BD000071
:1009D00080B582B040F29C00C2F200000022019279
:1009E000026240F20040C4F2020000900A21FFF7C8
:1009F00005FE0098019A0421FFF700FE0098019A75
:100A00000521FFF7FBFD0098019A0821FFF7F6FD8D
:100A100002B080BD80B500F001F880BD40F29801C1
:100A2000C2F20001086801300860704780B582B0EA
:100A30004EF21001CEF20001002008600A6842F078
:100A400004020A604EF21403CEF2000344F61F02C1
:100A5000C0F201021A604EF21802CEF200021060DB
:100A6000086840F002000860086840F00100086073
:100A70004FF0FF300190102100F062F8019800F073
:100A800025F802B080BD00004EF68851CEF200017C
:100A9000086840F4700008607047000081B08DF86D
:100AA00003009DF9030000280ED4FFE79DF9031011
:100AB00001F01F02012090404A094EF20011CEF2CF
:100AC000000141F82200FFE701B0704781B08DF8C6
:100AD00003009DF9030000280ED4FFE79DF90310E1
:100AE00001F01F02012090404A094EF20011CEF29F
:100AF000000141F82200FFE701B0704782B08DF895
:100B0000070000919DF9070000280AD4FFE700982C
:100B100000019DF907104EF20042CEF20002885407
:100B20000BE0009800019DF8071001F00F014EF650
:100B30001452CEF200028854FFE702B07047000062
:100B400082B08DF8070000919DF9070000280AD4B3
:100B5000FFE7009800019DF907104EF20042CEF227
:100B6000000288540BE0009800019DF8071001F086
:100B70000F014EF61452CEF200028854FFE702B085
:100B80007047000081B0009000990120884043F632
:100B90001441C4F20101086001B0704782B00190B5
:100BA000019901208840009043F61440C4F20100EE
:100BB000006800990840401AB0FA80F0400902B07D
:100BC0007047000080B582B000200090019000F0D6
:100BD00009F8009942F210700122FFF7B1FEFFE719
:100BE000FEE7000080B588B0FFF760FDFFF71EFF4D
:100BF00040F60000C4F2020004900D21059100238C
:100C000006931A46FFF784FB04980599069AFFF7A6
:100C100049FC68460321C16040F20042C4F202026E
:100C2000826005210791416002600A210423104679
:100C3000FFF7C6FD0798FFF773FE08B080BDF1EE21
:100C4000100A4FF6FF71C0F2C03120EA010040F0F7
:100C50004070E1EE100A7047780C00080000002098
:100C600038000000D4010008B00C00083800002053
:100C700088060000F00100080024F4000C000000C9
:100C80000100000003000000060000000200000058
:100C9000000000000C000000030000000100000044
:100CA0000C000000000000000200000064000000D2
:040000050800019955
:00000001FF
