:020000040800F2
:100000006806002039020008410200084302000887
:1000100045020008470200084902000800000000ED
:100020000000000000000000000000004B0200087B
:100030004D020008000000004F02000851020008B5
:10004000530200085302000853020008530200083C
:10005000530200085302000853020008530200082C
:10006000530200085302000853020008530200081C
:10007000530200085302000853020008530200080C
:100080005302000853020008530200080000000059
:100090000000000000000000000000005302000803
:1000A00053020008530200085302000853020008DC
:1000B00053020008530200085302000853020008CC
:1000C00053020008530200085302000853020008BC
:1000D0005302000853020008530200080000000009
:1000E000F502000853020008530200080000000057
:1000F00000000000000000000000000053020008A3
:1001000000000000530200085302000853020008D8
:1001100000000000000000000000000000000000DF
:10012000530200085302000853020008530200085B
:100130005302000800000000000000000000000062
:100140000000000000000000000000005302000852
:10015000530200085302000853020008530200082B
:1001600053020008530200080000000000000000D5
:10017000000000000000000000000000000000007F
:100180000000000053020008000000000000000012
:10019000530200085302000800F002F800F03CF897
:1001A0000AA090E8000C82448344AAF10107DA45D2
:1001B00001D100F031F8AFF2090EBAE80F0013F0E8
:1001C000010F18BFFB1A43F001031847E0040000B9
:1001D00000050000103A24BF78C878C1FAD8520749
:1001E00024BF30C830C144BF04680C6070470000B1
:1001F0000023002400250026103A28BF78C1FBD830
:10020000520728BF30C148BF0B6070471FB500F0D0
:1002100040FA1FBD10B510BD00F031F81146FFF7D0
:10022000F5FF00F0F1F900F04FF803B4FFF7F2FF2B
:1002300003BC00F057F80000094880470948004710
:10024000FEE7FEE7FEE7FEE7FEE7FEE7FEE7FEE786
:10025000FEE7FEE704480549054A064B70470000E3
:100260008105000899010008680000206806002048
:10027000680200206802002070477047704775468A
:1002800000F02CF8AE4605006946534620F0070002
:10029000854618B020B5FFF7DDFFBDE820404FF0E0
:1002A00000064FF000074FF000084FF0000BAC467F
:1002B000ACE8C009ACE8C009ACE8C009ACE8C009CA
:1002C00021F007018D46704710B50446AFF300805A
:1002D0002046BDE81040FFF7A8BF00000048704767
:1002E0000800002001491820ABBEFEE726000200EE
:1002F0007047000043F61440C4F201000068800417
:10030000002810D5FFE71421C4F20201086880F02C
:100310002000086043F61441C4F20101086840F46B
:1003200000500860FFE7704780B584B003900291E9
:10033000019203980021C4F20201884203D1FFE731
:1003400000F058F8FFE7039840F20041C4F20201C0
:10035000884203D1FFE700F057F8FFE7039840F623
:100360000001C4F20201884203D1FFE700F056F811
:10037000FFE7039840F60041C4F20201884203D12E
:10038000FFE700F055F8FFE7039841F20001C4F2DF
:100390000201884203D1FFE700F054F8FFE7039819
:1003A00041F60041C4F20201884203D1FFE700F0A8
:1003B00053F8FFE703980299019A00F003F804B09C
:1003C00080BD000083B0029001910092019841002D
:1003D000032000FA01F2029908689043086000982F
:1003E0000199490000FA01F2029908681043086077
:1003F00003B0704743F63001C4F20201086840F0D0
:10040000010008607047000043F63001C4F20201A9
:10041000086840F0020008607047000043F63001B1
:10042000C4F20201086840F0040008607047000050
:1004300043F63001C4F20201086840F0040008608D
:100440007047000043F63001C4F20201086840F032
:10045000040008607047000043F63001C4F2020156
:10046000086840F0040008607047000081B043F65F
:100470000041C4F20201086820F007000860086823
:1004800040F00200086043F60001C4F2020108686F
:1004900040F001000860FFE743F60000C4F20200EC
:1004A00000688007002801D4FFE7F5E743F6000164
:1004B000C4F20201086820F08070086043F604026C
:1004C000C4F202020092106820F4800010601068EC
:1004D00010601068542363F38E10106010680823B6
:1004E00063F305001060106820F440301060086865
:1004F00040F080700860FFE743F60000C4F202009D
:10050000006800F000710020B0EB516F01D0FFE7F0
:10051000F2E743F60801C4F20201086820F0030084
:100520000860086840F002000860FFE743F6080032
:10053000C4F20200006800F00C00082801D0FFE7B8
:10054000F4E743F60801C4F20201086820F0F00065
:100550000860086820F4E0500860086840F48050A3
:100560000860086820F46040086040F20001C2F2B0
:1005700000014BF60050C0F20150086001B0704716
:100580004EF68851CEF20001086840F47000086011
:100590007047000081B08DF803009DF9030000282A
:1005A0000ED4FFE79DF9031001F01F0201209040D7
:1005B0004A094EF20011CEF2000141F82200FFE795
:1005C00001B0704782B08DF8070000919DF90700D7
:1005D00000280AD4FFE7009800019DF907104EF2A9
:1005E0000042CEF2000288540BE0009800019DF812
:1005F000071001F00F014EF61452CEF2000288549B
:10060000FFE702B07047000080B584B00020019081
:10061000039000F02BF8019943F64402C4F2020261
:10062000106840F48040106043F61402C4F20102E6
:10063000106840F02000106043F60C42C4F2010242
:10064000106840F40050106043F60042C4F201020A
:10065000106840F40050106028200290FFF7B2FFAD
:100660000298FFF797FFFFE7FEE7000080B5FFF76E
:10067000FDFE0020C4F2020005210122FFF754FE16
:1006800040F60000C4F202000D210022FFF74CFEEC
:1006900080BDF1EE100A4FF6FF71C0F2C03120EAC2
:1006A000010040F04070E1EE100A7047D0060008EB
:1006B0000000002008000000D4010008D80600084F
:1006C0000800002060060000F001000800000000A3
:0806D0000024F400000000000A
:040000050800019955
:00000001FF
