:020000040800F2
:10000000700600203902000841020008430200087F
:1000100045020008470200084902000800000000ED
:100020000000000000000000000000004B0200087B
:100030004D020008000000004F02000851020008B5
:10004000530200085302000853020008530200083C
:10005000530200085302000853020008530200082C
:10006000530200085302000853020008530200081C
:10007000530200085302000853020008530200080C
:100080005302000853020008530200080000000059
:100090000000000000000000000000005302000803
:1000A00053020008530200085302000853020008DC
:1000B00053020008530200085302000853020008CC
:1000C00053020008530200085302000853020008BC
:1000D0005302000853020008530200080000000009
:1000E000F502000853020008530200080000000057
:1000F00000000000000000000000000053020008A3
:1001000000000000530200085302000853020008D8
:1001100000000000000000000000000000000000DF
:10012000530200085302000853020008530200085B
:100130005302000800000000000000000000000062
:100140000000000000000000000000005302000852
:10015000530200085302000853020008530200082B
:1001600053020008530200080000000000000000D5
:10017000000000000000000000000000000000007F
:100180000000000053020008000000000000000012
:10019000530200085302000800F002F800F03CF897
:1001A0000AA090E8000C82448344AAF10107DA45D2
:1001B00001D100F031F8AFF2090EBAE80F0013F0E8
:1001C000010F18BFFB1A43F001031847400A000053
:1001D000600A0000103A24BF78C878C1FAD85207E4
:1001E00024BF30C830C144BF04680C6070470000B1
:1001F0000023002400250026103A28BF78C1FBD830
:10020000520728BF30C148BF0B6070471FB500F0D0
:10021000F0FC1FBD10B510BD00F031F81146FFF71E
:10022000F5FF00F00BFB00F04FF803B4FFF7F2FF0F
:1002300003BC00F057F80000094880470948004710
:10024000FEE7FEE7FEE7FEE7FEE7FEE7FEE7FEE786
:10025000FEE7FEE704480549054A064B70470000E3
:10026000B507000899010008700000207006002002
:10027000700200207002002070477047704775467A
:1002800000F02CF8AE4605006946534620F0070002
:10029000854618B020B5FFF7DDFFBDE820404FF0E0
:1002A00000064FF000074FF000084FF0000BAC467F
:1002B000ACE8C009ACE8C009ACE8C009ACE8C009CA
:1002C00021F007018D46704710B50446AFF300805A
:1002D0002046BDE81040FFF7A8BF00000048704767
:1002E0000800002001491820ABBEFEE726000200EE
:1002F0007047000043F61440C4F201000068800417
:1003000000281BD5FFE740F26800C2F20000016838
:100310000131016000680A2807D3FFE740F2680155
:10032000C2F2000100200860FFE743F61441C4F266
:100330000101086840F400500860FFE770470000C2
:1003400081B000900099012000FA01F243F60041CB
:10035000C4F2010108681043086001B07047000052
:1003600080B586B0059004910392029343F6440150
:10037000C4F20201086840F480400860059800213A
:10038000C4F20201884203D1FFE70020019026E079
:10039000059840F20041C4F20201884203D1FFE710
:1003A000012001901AE0059840F60001C4F2020114
:1003B000884203D1FFE7022001900EE0059840F645
:1003C0000041C4F20201884203D1FFE703200190FB
:1003D00002E004200190FFE7FFE7FFE7FFE7049852
:1003E000C11700EB917121F00301411A8A000F211E
:1003F00001FA02F320F0030143F60802C4F20102FD
:1004000088589843885001990498C31700EB937358
:1004100023F00303C31A9B0001FA03F320F0030146
:10042000885818438850039860B9FFE70499012061
:1004300000FA01F243F60C41C4F2010108681043CE
:1004400008602BE0039801280CD1FFE704990120F4
:1004500000FA01F243F60841C4F2010108681043B2
:1004600008601AE00398022816D1FFE704990120DA
:1004700000FA01F343F60842C4F20102116819437D
:100480001160049900FA01F243F60C41C4F2010133
:10049000086810430860FFE7FFE7FFE704990120C1
:1004A00000FA01F243F60041C4F20101086810436A
:1004B0000860002000900498042804DCFFE70498FA
:1004C000063000900AE00498092803DCFFE71720B3
:1004D000009002E028200090FFE7FFE79DF9000070
:1004E000029900F089F99DF9000000F06DF906B05D
:1004F00080BD000080B584B0039002910192039802
:100500000021C4F20201884203D1FFE700F08CF819
:10051000FFE7039840F20041C4F20201884203D190
:10052000FFE700F08BF8FFE7039840F60001C4F204
:100530000201884203D1FFE700F08AF8FFE7039841
:1005400040F60041C4F20201884203D1FFE700F007
:1005500089F8FFE7039841F20001C4F202018842E2
:1005600003D1FFE700F088F8FFE7039841F6004168
:10057000C4F20201884203D1FFE700F087F8FFE7E9
:1005800003980299019A00F003F804B080BD0000BE
:1005900083B002900191009201984100032000FA7B
:1005A00001F2029908689043086000980199490097
:1005B00000FA01F2029908681043086003B070471E
:1005C00083B002900191009201984100032000FA4B
:1005D00001F2029988689043886000980199490067
:1005E00000FA01F2029988681043886003B07047EE
:1005F00083B00290019100920098012809D1FFE791
:100600000199012000FA01F20299486910434861FA
:1006100008E00199012000FA01F20299486990432B
:100620004861FFE703B0704743F63001C4F20201AE
:10063000086840F0010008607047000043F6300190
:10064000C4F20201086840F0020008607047000030
:1006500043F63001C4F20201086840F0040008606B
:100660007047000043F63001C4F20201086840F010
:10067000040008607047000043F63001C4F2020134
:10068000086840F0040008607047000043F630013D
:10069000C4F20201086840F00400086070470000DE
:1006A00081B043F60041C4F20201086820F007005F
:1006B0000860086840F00200086043F60001C4F2D8
:1006C0000201086840F001000860FFE743F60000FF
:1006D000C4F2020000688007002801D4FFE7F5E7B4
:1006E00043F60001C4F20201086820F0807008603F
:1006F00043F60402C4F202020092106820F4800063
:100700001060106810601068542363F38E1010603E
:100710001068082363F305001060106820F440306F
:100720001060086840F080700860FFE743F6000042
:10073000C4F20200006800F000710020B0EB516FBD
:1007400001D0FFE7F2E743F60801C4F202010868AE
:1007500020F003000860086840F002000860FFE72E
:1007600043F60800C4F20200006800F00C000828FC
:1007700001D0FFE7F4E743F60801C4F2020108687C
:1007800020F0F0000860086820F4E0500860086875
:1007900040F480500860086820F46040086040F22F
:1007A0000001C2F200014BF60050C0F20150086097
:1007B00001B070474EF68851CEF20001086840F44F
:1007C000700008607047000081B08DF803009DF94B
:1007D000030000280ED4FFE79DF9031001F01F026B
:1007E000012090404A094EF20011CEF2000141F87A
:1007F0002200FFE701B0704782B08DF8070000913A
:100800009DF9070000280AD4FFE7009800019DF930
:1008100007104EF20042CEF2000288540BE000981E
:1008200000019DF8071001F00F014EF61452CEF2B0
:1008300000028854FFE702B07047000080B582B024
:100840000020019000F004F8FFE700F0C9F9FCE790
:1008500080B588B0FFF724FF0020C4F202000390A7
:100860000521019101220492FFF744FE01990398AA
:10087000049AFFF7A5FE40F60000C4F202000590BE
:100880000D21079100220692FFF734FE0398049A87
:100890000721029100F098F9049A40F20040C4F256
:1008A0000200062100F090F90299049A059800F0E0
:1008B0008BF90398049A092100F086F90798FFF74D
:1008C0003FFD0598069A079B1946FFF749FD08B0BA
:1008D00080BD000080B5A4B02390239800BBFFE743
:1008E0000020C4F2020021900721209100222292D0
:1008F000FFF77EFE229A40F20040C4F20200062179
:10090000FFF776FE2099229A40F60000C4F202001A
:10091000FFF76EFE2198229A0921FFF769FE50E148
:100920002398012820D1FFE70020C4F202001E9086
:1009300007211D910122FFF75BFE40F20040C4F247
:100940000200062100221F92FFF752FE1D991F9AF6
:1009500040F60000C4F20200FFF74AFE1E981F9AFC
:100960000921FFF745FE2BE12398022820D1FFE75C
:100970000020C4F202001B9007211A9100221C9251
:10098000FFF736FE40F20040C4F2020006210122C9
:10099000FFF72EFE1A991C9A40F60000C4F20200DE
:1009A000FFF726FE1B981C9A0921FFF721FE06E19E
:1009B0002398032821D1FFE70020C4F202001890F9
:1009C0000721179101221692FFF712FE169A40F2A4
:1009D0000040C4F202000621FFF70AFE179940F614
:1009E0000000C4F2020000221992FFF701FE1898DD
:1009F000199A0921FFF7FCFDE0E02398042820D193
:100A0000FFE70020C4F20200149007211391002296
:100A10001592FFF7EDFD159A40F20040C4F2020076
:100A20000621FFF7E5FD139940F60000C4F202002D
:100A30000122FFF7DDFD1498159A0921FFF7D8FD73
:100A4000BBE02398052821D1FFE70020C4F2020073
:100A5000119007210F9101221092FFF7C9FD40F27A
:100A60000040C4F20200062100221292FFF7C0FDEE
:100A70000F99109A40F60000C4F20200FFF7B8FD8B
:100A80001198129A0921FFF7B3FD95E023980628E3
:100A900021D1FFE70020C4F202000D9007210B9145
:100AA00000220E92FFF7A4FD40F20040C4F20200C3
:100AB000062101220C92FFF79BFD0B990C9A40F640
:100AC0000000C4F20200FFF793FD0D980E9A092171
:100AD000FFF78EFD6FE02398072820D1FFE7002065
:100AE000C4F202000A900721089101220992FFF73F
:100AF0007FFD099A40F20040C4F202000621FFF790
:100B000077FD0899099A40F60000C4F20200FFF749
:100B10006FFD0A9809210022FFF76AFD4AE0239839
:100B2000082820D1FFE70020C4F202000790072127
:100B3000059100220692FFF75BFD069A40F2004005
:100B4000C4F202000621FFF753FD0599069A40F60C
:100B50000000C4F20200FFF74BFD079809210122B3
:100B6000FFF746FD25E02398092821D1FFE7002063
:100B7000C4F2020003900721019101220492FFF7C1
:100B800037FD40F20040C4F202000621002202922A
:100B9000FFF72EFD0199029A40F60000C4F2020010
:100BA000FFF726FD0398049A0921FFF721FDFFE7CF
:100BB000FFE7FFE7FFE7FFE7FFE7FFE7FFE7FFE705
:100BC000FFE724B080BD000080B584B0039002919F
:100BD000019203980299019AFFF78CFC04B080BD42
:100BE00080B540F26800C2F200000068FFF772FEB4
:100BF00080BDF1EE100A4FF6FF71C0F2C03120EA5D
:100C0000010040F04070E1EE100A7047300C00081F
:100C10000000002008000000D4010008380C000883
:100C20000800002068060000F00100080000000035
:080C30000024F40000000000A4
:040000050800019955
:00000001FF
