:020000040800F2
:10000000700600203902000841020008430200087F
:1000100045020008470200084902000800000000ED
:100020000000000000000000000000004B0200087B
:100030004D020008000000004F020008110A0008ED
:10004000530200085302000853020008530200083C
:10005000530200085302000853020008530200082C
:10006000530200085302000853020008530200081C
:10007000530200085302000853020008530200080C
:100080005302000853020008530200080000000059
:100090000000000000000000000000005302000803
:1000A00053020008530200085302000853020008DC
:1000B00053020008530200085302000853020008CC
:1000C00053020008530200085302000853020008BC
:1000D0005302000853020008530200080000000009
:1000E000F502000853020008530200080000000057
:1000F00000000000000000000000000053020008A3
:1001000000000000530200085302000853020008D8
:1001100000000000000000000000000000000000DF
:10012000530200085302000853020008530200085B
:100130005302000800000000000000000000000062
:100140000000000000000000000000005302000852
:10015000530200085302000853020008530200082B
:1001600053020008530200080000000000000000D5
:10017000000000000000000000000000000000007F
:100180000000000053020008000000000000000012
:10019000530200085302000800F002F800F03CF897
:1001A0000AA090E8000C82448344AAF10107DA45D2
:1001B00001D100F031F8AFF2090EBAE80F0013F0E8
:1001C000010F18BFFB1A43F001031847E00C0000B1
:1001D000000D0000103A24BF78C878C1FAD8520741
:1001E00024BF30C830C144BF04680C6070470000B1
:1001F0000023002400250026103A28BF78C1FBD830
:10020000520728BF30C148BF0B6070471FB500F0D0
:1002100040FE1FBD10B510BD00F031F81146FFF7CC
:10022000F5FF00F0E5FD00F04FF803B4FFF7F2FF33
:1002300003BC00F057F80000094880470948004710
:10024000FEE7FEE7FEE7FEE7FEE7FEE7FEE7FEE786
:10025000FEE7FEE704480549054A064B70470000E3
:10026000850A00089901000870000020700600202F
:10027000700200207002002070477047704775467A
:1002800000F02CF8AE4605006946534620F0070002
:10029000854618B020B5FFF7DDFFBDE820404FF0E0
:1002A00000064FF000074FF000084FF0000BAC467F
:1002B000ACE8C009ACE8C009ACE8C009ACE8C009CA
:1002C00021F007018D46704710B50446AFF300805A
:1002D0002046BDE81040FFF7A8BF00000048704767
:1002E0000800002001491820ABBEFEE726000200EE
:1002F0007047000043F61440C4F201000068800417
:1003000000281BD5FFE740F26800C2F20000016838
:100310000131016000680A2807D3FFE740F2680155
:10032000C2F2000100200860FFE743F61441C4F266
:100330000101086840F400500860FFE770470000C2
:1003400080B584B003900291019203980021C4F219
:100350000201884203D1FFE700F094FAFFE7039817
:1003600040F20041C4F20201884203D1FFE700F0ED
:1003700093FAFFE7039840F60001C4F202018842B5
:1003800003D1FFE700F092FAFFE7039840F600413F
:10039000C4F20201884203D1FFE700F091FAFFE7BF
:1003A000039841F20001C4F20201884203D1FFE741
:1003B00000F090FAFFE7039841F60041C4F2020111
:1003C000884203D1FFE700F08FFAFFE70398029914
:1003D000019A00F003F804B080BD000083B00290E1
:1003E0000191009201984100032000FA01F2029964
:1003F00008689043086000980199490000FA01F2EA
:10040000029908681043086003B070471421C4F2D1
:100410000201086880F020000860704780B586B04F
:100420008DF817009DF9170004A903AA00F08EFCAF
:100430009DF9170002A901AA00F016F90498039982
:100440000222FFF77DFF02980021C4F201018842D9
:1004500005D0FFE70298B0F1804F11D1FFE7039B71
:1004600003F007008100012000FA01F204986FF008
:10047000030101EA53010144086A1043086221E0C4
:10048000029840F20041C4F20001884208D0FFE720
:10049000029840F60001C4F20001884211D1FFE742
:1004A000039B03F007008100022000FA01F2049888
:1004B0006FF0030101EA53010144086A1043086226
:1004C000FFE7FFE70298012100F0E6FA02990868C9
:1004D00020F0010008600299086820F01000086010
:1004E0000298C06A40080090019801281DD1FFE7DA
:1004F0000299886920F0700088610299886940F04B
:10050000600088610299886940F00800886100985D
:10051000029948630299086A20F002000862029971
:10052000086A40F00100086265E0019802281DD1C8
:10053000FFE70299886920F4E040886102998869A0
:1005400040F4C04088610299886940F40060886185
:100550000098029988630299086A20F020000862D6
:100560000299086A40F01000086243E001980328ED
:100570001DD1FFE70299C86920F07000C861029997
:10058000886940F0600088610299886940F008003D
:10059000886100980299C8630299086A20F4007083
:1005A00008620299086A40F48070086221E00198AC
:1005B00004281DD1FFE70299C86920F4E040C86112
:1005C0000299886940F4C04088610299886940F4C2
:1005D000006088610098029908640299086A20F412
:1005E000005008620299086A40F480500862FFE7F0
:1005F000FFE7FFE7FFE702980021C4F2010188420C
:1006000006D1FFE70299486C40F400404864FFE7D8
:100610000299086840F00100086006B080BD000043
:1006200080B582B08DF8070000919DF90700009910
:1006300000F002F802B080BD80B586B08DF81700DA
:1006400004919DF9170003A902AA00F07FFB9DF910
:10065000170001A96A4600F007F80198049900F014
:10066000A9FA06B080BD000080B588B08DF81F00E3
:10067000069105929DF91F0004A903AA00F066FBEC
:1006800004980021C4F20201884256D1FFE7039882
:1006900002900F284FD80299DFE801F008104D4D65
:1006A0004D18204D2A333C4D4D4D4D4506994FF088
:1006B000804008600599012008603DE006994FF0F0
:1006C0008040086005990220086035E006994FF0E7
:1006D000804008600599012008602DE0069940F2ED
:1006E0000040C4F20000086005990120086023E082
:1006F00006990020C4F201000860059901200860F5
:100700001AE006990020C4F2010008600599022051
:10071000086011E006990020C4F201000860059904
:100720000320086008E006994FF0804008600599B2
:100730000120086000E0FFE7A1E0049840F20041DA
:10074000C4F2020188425BD1FFE7039803380146F7
:100750000191072852D80199DFE801F0040C162016
:100760002A343E4806994FF08040086005990220DF
:10077000086044E0069940F20040C4F200000860BE
:100780000599012008603AE0069940F20040C4F261
:100790000000086005990220086030E0069940F6E4
:1007A0000000C4F20000086005990120086026E0FE
:1007B000069940F60000C4F2000008600599022086
:1007C00008601CE0069940F60000C4F200000860D2
:1007D00005990320086012E0069940F60000C4F273
:1007E0000000086005990420086008E006994FF0B1
:1007F0008040086005990320086000E0FFE73DE0C5
:10080000049840F60001C4F20201884235D1FFE7A6
:10081000039806380146009103282CD80099DFE898
:1008200001F0020C1620069940F20040C4F20000CC
:1008300008600599012008601EE0069940F200401A
:10084000C4F20000086005990220086014E00699CF
:1008500040F20040C4F200000860059903200860DF
:100860000AE0069940F20040C4F2000008600599D1
:100870000420086000E0FFE7FFE7FFE7FFE708B0BC
:1008800080BD000043F63001C4F20201086840F068
:10089000010008607047000043F63001C4F2020115
:1008A000086840F0020008607047000043F630011D
:1008B000C4F20201086840F00400086070470000BC
:1008C00043F63001C4F20201086840F004000860F9
:1008D0007047000043F63001C4F20201086840F09E
:1008E000040008607047000043F63001C4F20201C2
:1008F000086840F0040008607047000081B043F6CB
:100900000041C4F20201086820F00700086008688E
:1009100040F00200086043F60001C4F202010868DA
:1009200040F001000860FFE743F60000C4F2020057
:1009300000688007002801D4FFE7F5E743F60001CF
:10094000C4F20201086820F08070086043F60402D7
:10095000C4F202020092106820F480001060106857
:1009600010601068542363F38E1010601068082321
:1009700063F305001060106820F4403010600868D0
:1009800040F080700860FFE743F60000C4F2020008
:10099000006800F000710020B0EB516F01D0FFE75C
:1009A000F2E743F60801C4F20201086820F00300F0
:1009B0000860086840F002000860FFE743F608009E
:1009C000C4F20200006800F00C00082801D0FFE724
:1009D000F4E743F60801C4F20201086820F0F000D1
:1009E0000860086820F4E0500860086840F480500F
:1009F0000860086820F46040086040F20001C2F21C
:100A000000014BF60050C0F20150086001B0704781
:100A100080B500F001F880BD40F26C01C2F2000127
:100A2000086801300860704780B582B04EF210014E
:100A3000CEF20001002008600A6842F004020A6059
:100A40004EF21403CEF2000344F61F02C0F201027C
:100A50001A604EF21802CEF200021060086840F0F0
:100A600002000860086840F0010008604FF0FF30A5
:100A70000190102100F02AF9019800F00FF902B05E
:100A800080BD00004EF68851CEF20001086840F4A7
:100A9000700008607047000080B582B0019000913E
:100AA00001980021C4F20101884209D1FFE743F611
:100AB0004401C4F20201086840F00100086068E0E7
:100AC0000198B0F1804F09D1FFE743F64001C4F22D
:100AD0000201086840F00100086059E0019840F206
:100AE0000041C4F20001884209D1FFE743F640010A
:100AF000C4F20201086840F00200086047E0019873
:100B000040F60001C4F20001884209D1FFE743F634
:100B10004001C4F20201086840F00400086035E0BA
:100B2000019840F60041C4F20001884209D1FFE774
:100B300043F64401C4F20201086840F0080008606E
:100B400023E0019844F20001C4F20101884209D176
:100B5000FFE743F64401C4F20201086840F4803024
:100B6000086011E0019844F60001C4F201018842D6
:100B700009D1FFE743F64401C4F20201086840F4DA
:100B800000300860FFE7FFE7FFE7FFE7FFE7FFE769
:100B9000FFE70198009900F00DF80199086800F04E
:100BA000040008600199086840F00100086002B084
:100BB00080BD000086B0059004915420ADF80E0071
:100BC0000020ADF80C00BDF80E0005998862BDF854
:100BD0000C0001380599C86243F60800C4F202000F
:100BE00000688007002806D5FFE74BF60050C0F2EA
:100BF000015002900EE043F60800C4F202000068C3
:100C0000002030B9FFE742F20040C0F2F400029049
:100C1000FFE7FFE70598B0F1804F08D0FFE70598A0
:100C200040F60041C4F20001884219D1FFE7029862
:100C3000400945F6C521C0F67C21A0FB0110C00982
:100C4000ADF80E000498642148430190BDF80E00F1
:100C5000013805998862019801380599C8621BE03E
:100C60000298400945F6C521C0F67C21A0FB011081
:100C7000C009ADF80E00049800EB80004000ADF80C
:100C80000200BDF80E00013805998862BDF8020027
:100C900001380599C862FFE706B0704781B08DF84A
:100CA00003009DF9030000280ED4FFE79DF903100F
:100CB00001F01F02012090404A094EF20011CEF2CD
:100CC000000141F82200FFE701B0704782B08DF8C3
:100CD000070000919DF9070000280AD4FFE700985B
:100CE00000019DF907104EF20042CEF20002885436
:100CF0000BE0009800019DF8071001F00F014EF67F
:100D00001452CEF200028854FFE702B07047000090
:100D100082B0019040F26C00C2F2000000680090C6
:100D2000FFE740F26C00C2F2000000680099401A30
:100D30000199884201D2FFE7F3E740F26C01C2F269
:100D400000010020086002B07047000085B08DF8F7
:100D50001300039102929DF8130000F00F00019020
:100D60000198029908609DF9130000110090009805
:100D700030B9FFE703990020C4F20200086035E0B3
:100D80000098012807D1FFE7039940F20040C4F220
:100D90000200086029E00098022807D1FFE70399C4
:100DA00040F60000C4F2020008601DE0009803282D
:100DB00007D1FFE7039940F60040C4F20200086043
:100DC00011E00098072807D1FFE7039941F600409A
:100DD000C4F20200086005E003990020C4F202009A
:100DE0000860FFE7FFE7FFE7FFE7FFE705B07047B1
:100DF00080B584B00020039000F034F8FFE7FFF7DF
:100E000005FB00200290FFE70298092810DCFFE7AD
:100E100002984FF47A7148433421C4F2000108600B
:100E20006420FFF775FFFFE7029801300290EBE7BF
:100E300000200190FFE70198092812DCFFE70198E4
:100E4000C0F10A004FF47A7148433421C4F2000122
:100E500008606420FFF75CFFFFE701980130019014
:100E6000E9E7CCE780B582B0FFF748FDFFF7DCFD8E
:100E70000020C4F20200052101910222FFF760FA6E
:100E80000198FFF7CBFA01981421FFF7C9FB02B0D4
:100E900080BDF1EE100A4FF6FF71C0F2C03120EABA
:100EA000010040F04070E1EE100A7047D00E0008DB
:100EB0000000002008000000D4010008D80E00083F
:100EC0000800002068060000F00100080000000093
:080ED0000024F4000000000002
:040000050800019955
:00000001FF
