:020000040800F2
:10000000700600203902000841020008430200087F
:1000100045020008470200084902000800000000ED
:100020000000000000000000000000004B0200087B
:100030004D020008000000004F0200082D060008D5
:10004000530200085302000853020008530200083C
:10005000530200085302000853020008530200082C
:10006000530200085302000853020008530200081C
:10007000530200085302000853020008530200080C
:100080005302000853020008530200080000000059
:100090000000000000000000000000005302000803
:1000A00053020008530200085302000853020008DC
:1000B00053020008530200085302000853020008CC
:1000C00053020008530200085302000853020008BC
:1000D0005302000853020008530200080000000009
:1000E000F502000853020008530200080000000057
:1000F00000000000000000000000000053020008A3
:1001000000000000530200085302000853020008D8
:1001100000000000000000000000000000000000DF
:10012000530200085302000853020008530200085B
:100130005302000800000000000000000000000062
:100140000000000000000000000000005302000852
:10015000530200085302000853020008530200082B
:1001600053020008530200080000000000000000D5
:10017000000000000000000000000000000000007F
:100180000000000053020008000000000000000012
:10019000530200085302000800F002F800F03CF897
:1001A0000AA090E8000C82448344AAF10107DA45D2
:1001B00001D100F031F8AFF2090EBAE80F0013F0E8
:1001C000010F18BFFB1A43F0010318472C0A000067
:1001D0004C0A0000103A24BF78C878C1FAD85207F8
:1001E00024BF30C830C144BF04680C6070470000B1
:1001F0000023002400250026103A28BF78C1FBD830
:10020000520728BF30C148BF0B6070471FB500F0D0
:10021000E6FC1FBD10B510BD00F031F81146FFF728
:10022000F5FF00F0BBFA00F04FF803B4FFF7F2FF60
:1002300003BC00F057F80000094880470948004710
:10024000FEE7FEE7FEE7FEE7FEE7FEE7FEE7FEE786
:10025000FEE7FEE704480549054A064B70470000E3
:10026000A106000899010008700000207006002017
:10027000700200207002002070477047704775467A
:1002800000F02CF8AE4605006946534620F0070002
:10029000854618B020B5FFF7DDFFBDE820404FF0E0
:1002A00000064FF000074FF000084FF0000BAC467F
:1002B000ACE8C009ACE8C009ACE8C009ACE8C009CA
:1002C00021F007018D46704710B50446AFF300805A
:1002D0002046BDE81040FFF7A8BF00000048704767
:1002E0000800002001491820ABBEFEE726000200EE
:1002F0007047000043F61440C4F201000068800417
:1003000000281BD5FFE740F26800C2F20000016838
:100310000131016000680A2807D3FFE740F2680155
:10032000C2F2000100200860FFE743F61441C4F266
:100330000101086840F400500860FFE770470000C2
:1003400080B584B003900291019203980021C4F219
:100350000201884203D1FFE700F0A2F8FFE703980B
:1003600040F20041C4F20201884203D1FFE700F0ED
:10037000A1F8FFE7039840F60001C4F202018842A9
:1003800003D1FFE700F0A0F8FFE7039840F6004133
:10039000C4F20201884203D1FFE700F09FF8FFE7B3
:1003A000039841F20001C4F20201884203D1FFE741
:1003B00000F09EF8FFE7039841F60041C4F2020105
:1003C000884203D1FFE700F09DF8FFE70398029908
:1003D000019A00F003F804B080BD000083B00290E1
:1003E0000191009201984100032000FA01F2029964
:1003F00008689043086000980199490000FA01F2EA
:10040000029908681043086003B0704783B00290F7
:100410000191009201984100032000FA01F2029933
:1004200088689043886000980199490000FA01F2B9
:10043000029988681043886003B0704783B00290C7
:10044000019100200090029800690199C840C007FE
:1004500018B1FFE70120009002E000200090FFE7C4
:10046000009803B07047000083B0029001910092A1
:100470000098012809D1FFE70199012000FA01F253
:10048000029948691043486108E00199012000FA87
:1004900001F20299486990434861FFE703B0704751
:1004A00043F63001C4F20201086840F00100086020
:1004B0007047000043F63001C4F20201086840F0C2
:1004C000020008607047000043F63001C4F20201E8
:1004D000086840F0040008607047000043F63001EF
:1004E000C4F20201086840F0040008607047000090
:1004F00043F63001C4F20201086840F004000860CD
:100500007047000043F63001C4F20201086840F071
:10051000040008607047000081B043F60041C4F257
:100520000201086820F007000860086840F0020037
:10053000086043F60001C4F20201086840F00100BF
:100540000860FFE743F60000C4F20200006880077D
:10055000002801D4FFE7F5E743F60001C4F20201E9
:10056000086820F08070086043F60402C4F20202BA
:100570000092106820F4800010601068106010680D
:10058000542363F38E1010601068082363F3050092
:100590001060106820F440301060086840F08070EF
:1005A0000860FFE743F60000C4F20200006800F0B4
:1005B00000710020B0EB516F01D0FFE7F2E743F686
:1005C0000801C4F20201086820F00300086008680E
:1005D00040F002000860FFE743F60800C4F20200A2
:1005E000006800F00C00082801D0FFE7F4E743F6AC
:1005F0000801C4F20201086820F0F00008600868F1
:1006000020F4E0500860086840F4805008600868F2
:1006100020F46040086040F20001C2F200014BF695
:100620000050C0F20150086001B0704780B500F082
:1006300001F880BD40F26C01C2F20001086801308F
:100640000860704780B582B04EF21001CEF2000112
:10065000002008600A6842F004020A604EF21403A7
:10066000CEF2000344F61F02C0F201021A604EF2FD
:100670001802CEF200021060086840F00200086024
:10068000086840F0010008604FF0FF300190102131
:1006900000F062F8019800F025F802B080BD00007B
:1006A0004EF68851CEF20001086840F470000860F0
:1006B0007047000081B08DF803009DF90300002809
:1006C0000ED4FFE79DF9031001F01F0201209040B6
:1006D0004A094EF20011CEF2000141F82200FFE774
:1006E00001B0704781B08DF803009DF90300002828
:1006F0000ED4FFE79DF9031001F01F020120904086
:100700004A094EF20011CEF2000141F82200FFE743
:1007100001B0704782B08DF8070000919DF9070085
:1007200000280AD4FFE7009800019DF907104EF257
:100730000042CEF2000288540BE0009800019DF8C0
:10074000071001F00F014EF61452CEF20002885449
:10075000FFE702B07047000082B08DF807000091FB
:100760009DF9070000280AD4FFE7009800019DF9D1
:1007700007104EF20042CEF2000288540BE00098BF
:1007800000019DF8071001F00F014EF61452CEF251
:1007900000028854FFE702B07047000080B586B0C1
:1007A00000200290059000F055F8FFF74BFF4FF046
:1007B000FF3001901021FFF7ADFF0198FFF77AFF9E
:1007C00002980490FFE740F60000C4F202000D21F9
:1007D000FFF734FE0390039820B1FFE70498012847
:1007E0000CD1FFE740F26801C2F200010020009046
:1007F000086000F0EBF90098049002E000200490FB
:10080000FFE740F26C00C2F20000006840F2040111
:10081000C2F20001096888421BD3FFE740F268007A
:10082000C2F2000001680131016000680A2807D3A4
:10083000FFE740F26801C2F2000100200860FFE714
:1008400000F0C4F940F26C01C2F20001002008601F
:10085000FFE7B8E780B586B0FFF75EFE0020C4F280
:10086000020004900521019101220592FFF768FD25
:1008700001990498059AFFF7C9FD40F60000C4F2FB
:10088000020002900D210022FFF75AFD0498059AFC
:100890000721039100F08EF9059A40F20040C4F25E
:1008A0000200062100F086F902980399059A00F0EB
:1008B00081F90498059A092100F07CF906B080BD01
:1008C00080B5A4B02390239800BBFFE70020C4F2BA
:1008D000020021900721209100222292FFF7C4FDFF
:1008E000229A40F20040C4F202000621FFF7BCFD4C
:1008F0002099229A40F60000C4F20200FFF7B4FDEE
:100900002198229A0921FFF7AFFD50E12398012891
:1009100020D1FFE70020C4F202001E9007211D91A4
:100920000122FFF7A1FD40F20040C4F202000621BF
:1009300000221F92FFF798FD1D991F9A40F60000B4
:10094000C4F20200FFF790FD1E981F9A0921FFF7DD
:100950008BFD2BE12398022820D1FFE70020C4F271
:1009600002001B9007211A9100221C92FFF77CFDC8
:1009700040F20040C4F2020006210122FFF774FD9C
:100980001A991C9A40F60000C4F20200FFF76CFDB1
:100990001B981C9A0921FFF767FD06E1239803289D
:1009A00021D1FFE70020C4F202001890072117911F
:1009B00001221692FFF758FD169A40F20040C4F249
:1009C00002000621FFF750FD179940F60000C4F21F
:1009D000020000221992FFF747FD1898199A092181
:1009E000FFF742FDE0E02398042820D1FFE7002034
:1009F000C4F2020014900721139100221592FFF710
:100A000033FD159A40F20040C4F202000621FFF7C0
:100A10002BFD139940F60000C4F202000122FFF7FB
:100A200023FD1498159A0921FFF71EFDBBE02398BA
:100A3000052821D1FFE70020C4F202001190072110
:100A40000F9101221092FFF70FFD40F20040C4F217
:100A50000200062100221292FFF706FD0F99109A5C
:100A600040F60000C4F20200FFF7FEFC1198129A53
:100A70000921FFF7F9FC95E02398062821D1FFE72B
:100A80000020C4F202000D9007210B9100220E926B
:100A9000FFF7EAFC40F20040C4F202000621012206
:100AA0000C92FFF7E1FC0B990C9A40F60000C4F29F
:100AB0000200FFF7D9FC0D980E9A0921FFF7D4FC2C
:100AC0006FE02398072820D1FFE70020C4F202003E
:100AD0000A900721089101220992FFF7C5FC099AA3
:100AE00040F20040C4F202000621FFF7BDFC089965
:100AF000099A40F60000C4F20200FFF7B5FC0A981C
:100B000009210022FFF7B0FC4AE02398082820D1F1
:100B1000FFE70020C4F202000790072105910022A0
:100B20000692FFF7A1FC069A40F20040C4F20200D0
:100B30000621FFF799FC0599069A40F60000C4F2D9
:100B40000200FFF791FC079809210122FFF78CFCB6
:100B500025E02398092821D1FFE70020C4F20200F4
:100B600003900721019101220492FFF77DFC40F2DE
:100B70000040C4F20200062100220292FFF774FC3A
:100B80000199029A40F60000C4F20200FFF76CFCE3
:100B90000398049A0921FFF767FCFFE7FFE7FFE7E7
:100BA000FFE7FFE7FFE7FFE7FFE7FFE7FFE724B027
:100BB00080BD000080B584B003900291019203983B
:100BC0000299019AFFF7BCFB04B080BD80B540F2EA
:100BD0006800C2F200000068FFF772FE80BDF1EE0F
:100BE000100A4FF6FF71C0F2C03120EA010040F058
:100BF0004070E1EE100A7047180C00080000002059
:100C000008000000D4010008200C000808000020A3
:100C100068060000F00100080024F400E80300006A
:040000050800019955
:00000001FF
