:020000040800F2
:10000000700600203902000841020008430200087F
:1000100045020008470200084902000800000000ED
:100020000000000000000000000000004B0200087B
:100030004D020008000000004F02000851020008B5
:10004000530200085302000853020008530200083C
:10005000530200085302000853020008530200082C
:10006000530200085302000853020008530200081C
:10007000530200085302000853020008530200080C
:100080005302000853020008530200080000000059
:100090000000000000000000000000005302000803
:1000A00053020008530200085302000853020008DC
:1000B00053020008530200085302000853020008CC
:1000C00053020008530200085302000853020008BC
:1000D0005302000853020008530200080000000009
:1000E00053020008530200085302000800000000F9
:1000F00000000000000000000000000053020008A3
:1001000000000000530200085302000853020008D8
:1001100000000000000000000000000000000000DF
:10012000530200085302000853020008530200085B
:100130005302000800000000000000000000000062
:100140000000000000000000000000005302000852
:10015000530200085302000853020008530200082B
:1001600053020008530200080000000000000000D5
:10017000000000000000000000000000000000007F
:100180000000000053020008000000000000000012
:10019000530200085302000800F002F800F03CF897
:1001A0000AA090E8000C82448344AAF10107DA45D2
:1001B00001D100F031F8AFF2090EBAE80F0013F0E8
:1001C000010F18BFFB1A43F001031847B4050000E4
:1001D000D4050000103A24BF78C878C1FAD8520775
:1001E00024BF30C830C144BF04680C6070470000B1
:1001F0000023002400250026103A28BF78C1FBD830
:10020000520728BF30C148BF0B6070471FB500F0D0
:10021000A9FA1FBD10B510BD00F031F81146FFF767
:10022000F5FF00F0C9F900F04FF803B4FFF7F2FF53
:1002300003BC00F057F80000094880470948004710
:10024000FEE7FEE7FEE7FEE7FEE7FEE7FEE7FEE786
:10025000FEE7FEE704480549054A064B70470000E3
:10026000A505000899010008700000207006002014
:10027000700200207002002070477047704775467A
:1002800000F02CF8AE4605006946534620F0070002
:10029000854618B020B5FFF7DDFFBDE820404FF0E0
:1002A00000064FF000074FF000084FF0000BAC467F
:1002B000ACE8C009ACE8C009ACE8C009ACE8C009CA
:1002C00021F007018D46704710B50446AFF300805A
:1002D0002046BDE81040FFF7A8BF00000048704767
:1002E0000800002001491820ABBEFEE726000200EE
:1002F0007047000080B584B003900291019203988A
:100300000021C4F20201884203D1FFE700F0D0F8D7
:10031000FFE7039840F20041C4F20201884203D192
:10032000FFE700F0D1F8FFE7039840F60001C4F2C0
:100330000201884203D1FFE700F0D2F8FFE70398FB
:1003400040F60041C4F20201884203D1FFE700F009
:10035000D3F8FFE7039841F20001C4F2020188429A
:1003600003D1FFE700F0D4F8FFE7039841F600411E
:10037000C4F20201884203D1FFE700F0D5F8FFE79D
:1003800003980299019A00F003F804B080BD0000C0
:1003900083B002900191009201984100032000FA7D
:1003A00001F2029908689043086000980199490099
:1003B00000FA01F2029908681043086003B0704720
:1003C00083B002900191009201984100032000FA4D
:1003D00001F2029988689043886000980199490069
:1003E00000FA01F2029988681043886003B07047F0
:1003F00083B00290019100920199012000FA01F26C
:1004000002994868904348600098019900FA01F207
:10041000029948681043486003B0704783B0029067
:100420000191009201984100032000FA01F2029923
:10043000C8689043C86000980199490000FA01F229
:100440000299C8681043C86003B0704783B0029037
:10045000019100200090029800690199C840C007EE
:1004600018B1FFE70120009002E000200090FFE7B4
:10047000009803B07047000083B002900191009291
:100480000098012809D1FFE70199012000FA01F243
:10049000029948691043486108E00199012000FA77
:1004A00001F20299486990434861FFE703B0704741
:1004B00080B500F045F843F63001C4F20201086847
:1004C00040F00100086080BD80B500F039F843F6C7
:1004D0003001C4F20201086840F00200086080BDEB
:1004E00080B500F02DF843F63001C4F2020108682F
:1004F00040F00400086080BD80B500F021F843F6AC
:100500003001C4F20201086840F00400086080BDB8
:1005100080B500F015F843F63001C4F20201086816
:1005200040F00400086080BD80B500F009F843F693
:100530003001C4F20201086840F00400086080BD88
:1005400043F60001C4F20201086840F001000860AF
:10055000FFE743F60000C4F20200006880070028AD
:1005600001D4FFE7F5E743F60801C4F20201086889
:1005700020F00300086008680860FFE743F6080001
:10058000C4F20200006810F00C0F01D0FFE7F5E79D
:1005900040F20001C2F2000142F20040C0F2F40059
:1005A000086070474EF68851CEF20001086840F4AA
:1005B000700008607047000080B584B00020039090
:1005C00000F072F8FFE740F60000C4F202000D21CF
:1005D000FFF73CFF002866D1FFE740F26800C2F257
:1005E00000000168013146F26762C6F2666251FBA3
:1005F00002F35A1002EBD37202EB8202891A0160F5
:1006000000680290042842D80299DFE801F0030C48
:100610001C2A380040F20040C4F2020006210022E9
:10062000FFF72AFF33E040F20040C4F20200062147
:100630000122FFF721FF0020C4F202000C2100225A
:10064000FFF71AFF23E00020C4F2020001900C2102
:100650000122FFF711FF01980B210022FFF70CFF89
:1006600015E00020C4F2020000900B210122FFF7E8
:1006700003FF00980A210022FFF7FEFE07E000209A
:10068000C4F202000A210122FFF7F6FEFFE7FFE7AE
:1006900040F60000C4F202000D21FFF7D7FE08B9B2
:1006A000FFE7F5E7FFE78EE780B58AB0FFF748FF81
:1006B00040F60000C4F2020007900D2108910022CC
:1006C000FFF718FE0020C4F2020002900C210091F6
:1006D00001220992FFF70EFE0298099A0B2101915F
:1006E000FFF708FE0298099A0A210391FFF702FE1C
:1006F000099A40F20040C4F20200049006210591DC
:10070000FFF7F8FD00990298099AFFF771FE019929
:100710000298099AFFF76CFE02980399099AFFF76D
:1007200067FE04980599099AFFF762FE00990298FE
:1007300002220692FFF744FE01990298069AFFF7FB
:100740003FFE02980399069AFFF73AFE049805992E
:10075000069AFFF735FE07980899099AFFF75EFE9B
:100760000AB080BDF1EE100A4FF6FF71C0F2C03141
:1007700020EA010040F04070E1EE100A70470000EE
:10078000A00700080000002008000000D4010008B5
:10079000A80700080800002068060000F001000813
:0807A0000024F4000000000039
:040000050800019955
:00000001FF
