:020000040800F2
:100000007806002039020008410200084302000877
:1000100045020008470200084902000800000000ED
:100020000000000000000000000000004B0200087B
:100030004D020008000000004F02000851020008B5
:10004000530200085302000853020008530200083C
:10005000530200085302000853020008530200082C
:10006000530200085302000853020008530200081C
:10007000530200085302000853020008530200080C
:100080005302000853020008530200080000000059
:100090000000000000000000000000005302000803
:1000A00053020008530200085302000853020008DC
:1000B00053020008530200085302000853020008CC
:1000C00053020008530200085302000853020008BC
:1000D0005302000853020008530200080000000009
:1000E00053020008530200085302000800000000F9
:1000F00000000000000000000000000053020008A3
:1001000000000000530200085302000853020008D8
:1001100000000000000000000000000000000000DF
:10012000530200085302000853020008530200085B
:100130005302000800000000000000000000000062
:100140000000000000000000000000005302000852
:10015000530200085302000853020008530200082B
:1001600053020008530200080000000000000000D5
:10017000000000000000000000000000000000007F
:100180000000000053020008000000000000000012
:10019000530200085302000800F002F800F03CF897
:1001A0000AA090E8000C82448344AAF10107DA45D2
:1001B00001D100F031F8AFF2090EBAE80F0013F0E8
:1001C000010F18BFFB1A43F0010318470408000091
:1001D00024080000103A24BF78C878C1FAD8520722
:1001E00024BF30C830C144BF04680C6070470000B1
:1001F0000023002400250026103A28BF78C1FBD830
:10020000520728BF30C148BF0B6070471FB500F0D0
:10021000D2FB1FBD10B510BD00F031F81146FFF73D
:10022000F5FF00F09BF900F04FF803B4FFF7F2FF81
:1002300003BC00F057F80000094880470948004710
:10024000FEE7FEE7FEE7FEE7FEE7FEE7FEE7FEE786
:10025000FEE7FEE704480549054A064B70470000E3
:100260004905000899010008780000207806002060
:10027000780200207802002070477047704775466A
:1002800000F02CF8AE4605006946534620F0070002
:10029000854618B020B5FFF7DDFFBDE820404FF0E0
:1002A00000064FF000074FF000084FF0000BAC467F
:1002B000ACE8C009ACE8C009ACE8C009ACE8C009CA
:1002C00021F007018D46704710B50446AFF300805A
:1002D0002046BDE81040FFF7A8BF00000048704767
:1002E0000800002001491820ABBEFEE726000200EE
:1002F0007047000080B584B003900291019203988A
:100300000021C4F20201884203D1FFE700F0A2F805
:10031000FFE7039840F20041C4F20201884203D192
:10032000FFE700F0A3F8FFE7039840F60001C4F2EE
:100330000201884203D1FFE700F0A4F8FFE7039829
:1003400040F60041C4F20201884203D1FFE700F009
:10035000A5F8FFE7039841F20001C4F202018842C8
:1003600003D1FFE700F0A6F8FFE7039841F600414C
:10037000C4F20201884203D1FFE700F0A7F8FFE7CB
:1003800003980299019A00F003F804B080BD0000C0
:1003900083B002900191009201984100032000FA7D
:1003A00001F2029908689043086000980199490099
:1003B00000FA01F2029908681043086003B0704720
:1003C00083B002900191009201984100032000FA4D
:1003D00001F20299C8689043C860009801994900E9
:1003E00000FA01F20299C8681043C86003B0704770
:1003F00083B0029001910020009002980069019959
:10040000C840C00718B1FFE70120009002E00020BB
:100410000090FFE7009803B07047000083B002909F
:10042000019100920098012809D1FFE7019901206C
:1004300000FA01F2029948691043486108E0019905
:10044000012000FA01F20299486990434861FFE7F0
:1004500003B0704780B500F045F843F63001C4F2B0
:100460000201086840F00100086080BD80B500F01E
:1004700039F843F63001C4F20201086840F0020086
:10048000086080BD80B500F02DF843F63001C4F25D
:100490000201086840F00400086080BD80B500F0EB
:1004A00021F843F63001C4F20201086840F004006C
:1004B000086080BD80B500F015F843F63001C4F245
:1004C0000201086840F00400086080BD80B500F0BB
:1004D00009F843F63001C4F20201086840F0040054
:1004E000086080BD43F60001C4F20201086840F0D4
:1004F00001000860FFE743F60000C4F20200006854
:100500008007002801D4FFE7F5E743F60801C4F2AD
:100510000201086820F00300086008680860FFE72F
:1005200043F60800C4F20200006810F00C0F01D07E
:10053000FFE7F5E740F20001C2F2000142F200409D
:10054000C0F2F400086070474EF68851CEF2000108
:10055000086840F4700008607047000080B582B001
:100560000020019000F040F8FFE740F60000C4F2E0
:1005700002000D21FFF73CFF014640F26800C2F285
:1005800000000160006840F27001C2F200010968D9
:10059000884225D0FFE740F26800C2F20000006800
:1005A00098B9FFE740F26C00C2F200000168013127
:1005B000016000680A2807D3FFE740F26C01C2F22D
:1005C000000100200860FFE7FFE740F26800C2F288
:1005D0000000006840F27001C2F200010860FFE70D
:1005E00000F0E0F9C1E7000080B586B0FFF77AFFC0
:1005F00040F60000C4F2020002900D210191002299
:10060000FFF778FE0199029801220592FFF7D8FEC4
:10061000059A0020C4F2020004900721039100F023
:10062000B5F9059A40F20040C4F20200062100F03C
:10063000ADF902980399059A00F0A8F90498059A73
:10064000092100F0A3F906B080BD000080B5A6B076
:100650008DF897000020C4F2020023900721229118
:1006600001222492FFF7DAFE249A40F20040C4F2FD
:1006700002000621FFF7D2FE2299249A40F60000DC
:10068000C4F20200FFF7CAFE2398249A0921FFF75B
:10069000C5FE9DF8970000BBFFE70020C4F20200F2
:1006A000209007211F9100222192FFF7B7FE219A87
:1006B00040F20040C4F202000621FFF7AFFE1F998E
:1006C000219A40F60000C4F20200FFF7A7FE20982E
:1006D000219A0921FFF7A2FE56E19DF89700012813
:1006E00020D1FFE70020C4F202001D9007211C91D9
:1006F0000122FFF793FE40F20040C4F202000621FF
:1007000000221E92FFF78AFE1C991E9A40F60000F6
:10071000C4F20200FFF782FE1D981E9A0921FFF71E
:100720007DFE30E19DF89700022820D1FFE70020F0
:10073000C4F202001A900721199100221B92FFF7C0
:100740006DFE40F20040C4F2020006210122FFF7D4
:1007500065FE19991B9A40F60000C4F20200FFF7EB
:100760005DFE1A981B9A0921FFF758FE0AE19DF8D1
:100770009700032821D1FFE70020C4F20200179060
:100780000721169101221592FFF748FE159A40F2B3
:100790000040C4F202000621FFF740FE169940F621
:1007A0000000C4F2020000221892FFF737FE1798EB
:1007B000189A0921FFF732FEE3E09DF8970004281C
:1007C00020D1FFE70020C4F202001390072112910C
:1007D00000221492FFF722FE149A40F20040C4F265
:1007E00002000621FFF71AFE129940F60000C4F23B
:1007F00002000122FFF712FE1398149A0921FFF755
:100800000DFEBDE09DF89700052821D1FFE70020EF
:10081000C4F20200109007210E9101220F92FFF7FF
:10082000FDFD40F20040C4F20200062100221192B8
:10083000FFF7F4FD0E990F9A40F60000C4F2020093
:10084000FFF7ECFD1098119A0921FFF7E7FD96E0FC
:100850009DF89700062821D1FFE70020C4F202008E
:100860000C9007210A9100220D92FFF7D7FD40F26C
:100870000040C4F20200062101220B92FFF7CEFDD8
:100880000A990B9A40F60000C4F20200FFF7C6FD79
:100890000C980D9A0921FFF7C1FD6FE09DF89700B4
:1008A000072820D1FFE70020C4F2020009900721A9
:1008B000079101220892FFF7B1FD089A40F200402B
:1008C000C4F202000621FFF7A9FD0799089A40F635
:1008D0000000C4F20200FFF7A1FD099809210022DF
:1008E000FFF79CFD49E09DF8970008281DD1FFE720
:1008F0000020C4F202000490072105910022069214
:10090000FFF78CFD0498069A0621FFF787FD0498EF
:100910000599069AFFF782FD40F20040C4F20200FA
:1009200009210122FFF77AFD26E09DF897000928AA
:1009300021D1FFE70020C4F20200029007210091BC
:1009400001220392FFF76AFD40F20040C4F2020068
:10095000062100220192FFF761FD0099019A40F6FD
:100960000000C4F20200FFF759FD0298039A092122
:10097000FFF754FDFFE7FFE7FFE7FFE7FFE7FFE7CC
:10098000FFE7FFE7FFE7FFE726B080BD80B584B053
:1009900003900291019203980299019AFFF7AAFC31
:1009A00004B080BD80B540F26C00C2F20000007857
:1009B000FFF74CFE80BDF1EE100A4FF6FF71C0F25A
:1009C000C03120EA010040F04070E1EE100A7047AB
:1009D000F00900080000002008000000D401000811
:1009E000F80900080800002070060000F001000867
:0809F0000024F40000000000E7
:040000050800019955
:00000001FF
