:020000040800F2
:100000007806002039020008410200084302000877
:1000100045020008470200084902000800000000ED
:100020000000000000000000000000004B0200087B
:100030004D020008000000004F02000851020008B5
:10004000530200085302000853020008530200083C
:10005000530200085302000853020008530200082C
:10006000530200085302000853020008530200081C
:10007000530200085302000853020008530200080C
:100080005302000853020008530200080000000059
:100090000000000000000000000000005302000803
:1000A00053020008530200085302000853020008DC
:1000B00053020008530200085302000853020008CC
:1000C00053020008530200085302000853020008BC
:1000D0005302000853020008530200080000000009
:1000E00053020008530200085302000800000000F9
:1000F00000000000000000000000000053020008A3
:1001000000000000530200085302000853020008D8
:1001100000000000000000000000000000000000DF
:10012000530200085302000853020008530200085B
:100130005302000800000000000000000000000062
:100140000000000000000000000000005302000852
:10015000530200085302000853020008530200082B
:1001600053020008530200080000000000000000D5
:10017000000000000000000000000000000000007F
:100180000000000053020008000000000000000012
:10019000530200085302000800F002F800F03CF897
:1001A0000AA090E8000C82448344AAF10107DA45D2
:1001B00001D100F031F8AFF2090EBAE80F0013F0E8
:1001C000010F18BFFB1A43F001031847C0070000D6
:1001D000E0070000103A24BF78C878C1FAD8520767
:1001E00024BF30C830C144BF04680C6070470000B1
:1001F0000023002400250026103A28BF78C1FBD830
:10020000520728BF30C148BF0B6070471FB500F0D0
:10021000B0FB1FBD10B510BD00F031F81146FFF75F
:10022000F5FF00F09BF900F04FF803B4FFF7F2FF81
:1002300003BC00F057F80000094880470948004710
:10024000FEE7FEE7FEE7FEE7FEE7FEE7FEE7FEE786
:10025000FEE7FEE704480549054A064B70470000E3
:100260004905000899010008780000207806002060
:10027000780200207802002070477047704775466A
:1002800000F02CF8AE4605006946534620F0070002
:10029000854618B020B5FFF7DDFFBDE820404FF0E0
:1002A00000064FF000074FF000084FF0000BAC467F
:1002B000ACE8C009ACE8C009ACE8C009ACE8C009CA
:1002C00021F007018D46704710B50446AFF300805A
:1002D0002046BDE81040FFF7A8BF00000048704767
:1002E0000800002001491820ABBEFEE726000200EE
:1002F0007047000080B584B003900291019203988A
:100300000021C4F20201884203D1FFE700F0A2F805
:10031000FFE7039840F20041C4F20201884203D192
:10032000FFE700F0A3F8FFE7039840F60001C4F2EE
:100330000201884203D1FFE700F0A4F8FFE7039829
:1003400040F60041C4F20201884203D1FFE700F009
:10035000A5F8FFE7039841F20001C4F202018842C8
:1003600003D1FFE700F0A6F8FFE7039841F600414C
:10037000C4F20201884203D1FFE700F0A7F8FFE7CB
:1003800003980299019A00F003F804B080BD0000C0
:1003900083B002900191009201984100032000FA7D
:1003A00001F2029908689043086000980199490099
:1003B00000FA01F2029908681043086003B0704720
:1003C00083B002900191009201984100032000FA4D
:1003D00001F20299C8689043C860009801994900E9
:1003E00000FA01F20299C8681043C86003B0704770
:1003F00083B0029001910020009002980069019959
:10040000C840C00718B1FFE70120009002E00020BB
:100410000090FFE7009803B07047000083B002909F
:10042000019100920098012809D1FFE7019901206C
:1004300000FA01F2029948691043486108E0019905
:10044000012000FA01F20299486990434861FFE7F0
:1004500003B0704780B500F045F843F63001C4F2B0
:100460000201086840F00100086080BD80B500F01E
:1004700039F843F63001C4F20201086840F0020086
:10048000086080BD80B500F02DF843F63001C4F25D
:100490000201086840F00400086080BD80B500F0EB
:1004A00021F843F63001C4F20201086840F004006C
:1004B000086080BD80B500F015F843F63001C4F245
:1004C0000201086840F00400086080BD80B500F0BB
:1004D00009F843F63001C4F20201086840F0040054
:1004E000086080BD43F60001C4F20201086840F0D4
:1004F00001000860FFE743F60000C4F20200006854
:100500008007002801D4FFE7F5E743F60801C4F2AD
:100510000201086820F00300086008680860FFE72F
:1005200043F60800C4F20200006810F00C0F01D07E
:10053000FFE7F5E740F20001C2F2000142F200409D
:10054000C0F2F400086070474EF68851CEF2000108
:10055000086840F4700008607047000080B582B001
:100560000020019000F03AF8FFE740F60000C4F2E6
:1005700002000D21FFF73CFF014640F26800C2F285
:10058000000001600068D8B9FFE740F27000C2F2D5
:1005900000000068012813D1FFE740F26C00C2F2AE
:1005A000000001680131016000680A2807D3FFE7F5
:1005B00040F26C01C2F2000100200860FFE7FFE793
:1005C00040F26800C2F20000006840F27001C2F21E
:1005D0000001086000F0C4F9C7E7000080B586B0EC
:1005E000FFF780FF40F60000C4F2020002900D21E8
:1005F00001910022FFF77EFE0199029801220592E7
:10060000FFF7DEFE059A0020C4F2020004900721E5
:10061000039100F099F9059A40F20040C4F20200FB
:10062000062100F091F902980399059A00F08CF9DF
:100630000498059A092100F087F906B080BD0000F2
:1006400080B5A4B08DF88F009DF88F0000BBFFE748
:100650000020C4F202002190072120910022229262
:10066000FFF7DCFE229A40F20040C4F202000621AD
:10067000FFF7D4FE2099229A40F60000C4F202004F
:10068000FFF7CCFE2198229A0921FFF7C7FE59E116
:100690009DF88F00012820D1FFE70020C4F202005E
:1006A0001E9007211D910122FFF7B8FE40F2004085
:1006B000C4F20200062100221F92FFF7AFFE1D992F
:1006C0001F9A40F60000C4F20200FFF7A7FE1E9832
:1006D0001F9A0921FFF7A2FE33E19DF88F0002283F
:1006E00020D1FFE70020C4F202001B9007211A91DD
:1006F00000221C92FFF792FE40F20040C4F202007A
:1007000006210122FFF78AFE1A991C9A40F6000082
:10071000C4F20200FFF782FE1B981C9A0921FFF722
:100720007DFE0DE19DF88F00032821D1FFE7002019
:10073000C4F2020018900721179101221692FFF7C8
:100740006DFE169A40F20040C4F202000621FFF747
:1007500065FE179940F60000C4F2020000221992CB
:10076000FFF75CFE1898199A0921FFF757FEE6E09B
:100770009DF88F00042820D1FFE70020C4F202007A
:1007800014900721139100221592FFF747FE159A46
:1007900040F20040C4F202000621FFF73FFE139929
:1007A00040F60000C4F202000122FFF737FE149861
:1007B000159A0921FFF732FEC0E09DF88F00052849
:1007C00021D1FFE70020C4F20200119007210F9110
:1007D00001221092FFF722FE40F20040C4F2020014
:1007E000062100221292FFF719FE0F99109A40F687
:1007F0000000C4F20200FFF711FE1198129A0921BD
:10080000FFF70CFE99E09DF88F00062821D1FFE745
:100810000020C4F202000D9007210B9100220E92DD
:10082000FFF7FCFD40F20040C4F202000621012265
:100830000C92FFF7F3FD0B990C9A40F60000C4F2FE
:100840000200FFF7EBFD0D980E9A0921FFF7E6FD78
:1008500072E09DF88F00072820D1FFE70020C4F246
:1008600002000A900721089101220992FFF7D6FDA4
:10087000099A40F20040C4F202000621FFF7CEFDC3
:100880000899099A40F60000C4F20200FFF7C6FD7D
:100890000A9809210022FFF7C1FD4CE09DF88F0066
:1008A000082820D1FFE70020C4F2020007900721AA
:1008B000059100220692FFF7B1FD069A40F2004032
:1008C000C4F202000621FFF7A9FD0599069A40F639
:1008D0000000C4F20200FFF7A1FD079809210122E0
:1008E000FFF79CFD26E09DF88F00092821D1FFE746
:1008F0000020C4F20200039007210191012204921A
:10090000FFF78CFD40F20040C4F2020006210022F5
:100910000292FFF783FD0199029A40F60000C4F2AB
:100920000200FFF77BFD0398049A0921FFF776FD8B
:10093000FFE7FFE7FFE7FFE7FFE7FFE7FFE7FFE787
:10094000FFE7FFE724B080BD80B584B0039002913B
:10095000019203980299019AFFF7CCFC04B080BD84
:1009600080B540F26C00C2F200000078FFF768FE2C
:1009700080BDF1EE100A4FF6FF71C0F2C03120EADF
:10098000010040F04070E1EE100A7047B009000825
:100990000000002008000000D4010008B809000889
:1009A0000800002070060000F001000800000000B0
:0809B0000024F4000000000027
:040000050800019955
:00000001FF
