:020000040800F2
:100000007806002039020008410200084302000877
:1000100045020008470200084902000800000000ED
:100020000000000000000000000000004B0200087B
:100030004D020008000000004F020008650D000896
:10004000530200085302000853020008530200083C
:10005000530200085302000853020008530200082C
:10006000530200085302000853020008530200081C
:10007000530200085302000853020008530200080C
:100080005302000853020008530200080000000059
:100090000000000000000000000000005302000803
:1000A00053020008530200085302000853020008DC
:1000B000910D0008F90D00085302000853020008D2
:1000C00053020008530200085302000853020008BC
:1000D0005302000853020008530200080000000009
:1000E000F502000853020008530200080000000057
:1000F00000000000000000000000000053020008A3
:1001000000000000530200085302000853020008D8
:1001100000000000000000000000000000000000DF
:10012000530200085302000853020008530200085B
:100130005302000800000000000000000000000062
:100140000000000000000000000000005302000852
:10015000530200085302000853020008530200082B
:1001600053020008530200080000000000000000D5
:10017000000000000000000000000000000000007F
:100180000000000053020008000000000000000012
:10019000530200085302000800F002F800F03CF897
:1001A0000AA090E8000C82448344AAF10107DA45D2
:1001B00001D100F031F8AFF2090EBAE80F0013F0E8
:1001C000010F18BFFB1A43F0010318476815000020
:1001D00088150000103A24BF78C878C1FAD85207B1
:1001E00024BF30C830C144BF04680C6070470000B1
:1001F0000023002400250026103A28BF78C1FBD830
:10020000520728BF30C148BF0B6070471FB501F0CF
:1002100084FA1FBD10B510BD00F031F81146FFF78C
:10022000F5FF01F087F800F04FF803B4FFF7F2FF95
:1002300003BC00F057F80000094880470948004710
:10024000FEE7FEE7FEE7FEE7FEE7FEE7FEE7FEE786
:10025000FEE7FEE704480549054A064B70470000E3
:100260007D0D000899010008780000207806002024
:10027000780200207802002070477047704775466A
:1002800000F02CF8AE4605006946534620F0070002
:10029000854618B020B5FFF7DDFFBDE820404FF0E0
:1002A00000064FF000074FF000084FF0000BAC467F
:1002B000ACE8C009ACE8C009ACE8C009ACE8C009CA
:1002C00021F007018D46704710B50446AFF300805A
:1002D0002046BDE81040FFF7A8BF00000048704767
:1002E0000800002001491820ABBEFEE726000200EE
:1002F0007047000043F61440C4F201000068800417
:1003000000281BD5FFE740F26C00C2F20000016834
:100310000131016000680A2807D3FFE740F26C0151
:10032000C2F2000100200860FFE743F61441C4F266
:100330000101086840F400500860FFE770470000C2
:1003400081B000900099012000FA01F243F60041CB
:10035000C4F2010108681043086001B07047000052
:1003600080B586B0059004910392029343F6440150
:10037000C4F20201086840F480400860059800213A
:10038000C4F20201884203D1FFE70020019026E079
:10039000059840F20041C4F20201884203D1FFE710
:1003A000012001901AE0059840F60001C4F2020114
:1003B000884203D1FFE7022001900EE0059840F645
:1003C0000041C4F20201884203D1FFE703200190FB
:1003D00002E004200190FFE7FFE7FFE7FFE7049852
:1003E000C11700EB917121F00301411A8A000F211E
:1003F00001FA02F320F0030143F60802C4F20102FD
:1004000088589843885001990498C31700EB937358
:1004100023F00303C31A9B0001FA03F320F0030146
:10042000885818438850039860B9FFE70499012061
:1004300000FA01F243F60C41C4F2010108681043CE
:1004400008602BE0039801280CD1FFE704990120F4
:1004500000FA01F243F60841C4F2010108681043B2
:1004600008601AE00398022816D1FFE704990120DA
:1004700000FA01F343F60842C4F20102116819437D
:100480001160049900FA01F243F60C41C4F2010133
:10049000086810430860FFE7FFE7FFE704990120C1
:1004A00000FA01F243F60041C4F20101086810436A
:1004B0000860002000900498042804DCFFE70498FA
:1004C000063000900AE00498092803DCFFE71720B3
:1004D000009002E028200090FFE7FFE79DF9000070
:1004E000029900F061FE9DF9000000F02DFE06B0BB
:1004F00080BD000080B584B0039002910192039802
:100500000021C4F20201884203D1FFE700F064FB3E
:10051000FFE7039840F20041C4F20201884203D190
:10052000FFE700F063FBFFE7039840F60001C4F229
:100530000201884203D1FFE700F062FBFFE7039866
:1005400040F60041C4F20201884203D1FFE700F007
:1005500061FBFFE7039841F20001C4F20201884207
:1005600003D1FFE700F060FBFFE7039841F600418D
:10057000C4F20201884203D1FFE700F05FFBFFE70E
:1005800003980299019A00F003F804B080BD0000BE
:1005900083B002900191009201984100032000FA7B
:1005A00001F2029908689043086000980199490097
:1005B00000FA01F2029908681043086003B070471E
:1005C00083B002900191009201984100032000FA4B
:1005D00001F20299C8689043C860009801994900E7
:1005E00000FA01F20299C8681043C86003B070476E
:1005F00083B00290019100920098012809D1FFE791
:100600000199012000FA01F20299486910434861FA
:1006100008E00199012000FA01F20299486990432B
:100620004861FFE703B070471421C4F20201086873
:1006300080F020000860704780B588B08DF81F00FA
:100640008DED060A9DF91F0005A904AA00F018FE09
:100650009DF91F0003A902AA00F044F90398C06A9B
:10066000013000EE100AB8EE400A9DED061A20EEA9
:10067000010A8DED010A0298012808D1FFE79DEDDE
:10068000010A0398BCEEC00A80ED0D0A26E002982C
:10069000012808D1FFE79DED010A0398BCEEC00ACE
:1006A00080ED0E0A19E00298012808D1FFE79DEDC0
:1006B000010A0398BCEEC00A80ED0F0A0CE0029814
:1006C000012808D1FFE79DED010A0398BCEEC00A9E
:1006D00080ED100AFFE7FFE7FFE7FFE708B080BD06
:1006E00080B586B08DF817009DF9170004A903AAFC
:1006F00000F0C6FD9DF9170002A901AA00F0F2F86A
:10070000049803990222FFF7F5FE02980021C4F233
:100710000101884205D0FFE70298B0F1804F11D166
:10072000FFE7039B03F007008100012000FA01F2BC
:1007300004986FF0030101EA53010144086A104371
:10074000086221E0029840F20041C4F200018842B0
:1007500008D0FFE7029840F60001C4F20001884289
:1007600011D1FFE7039B03F007008100022000FA8C
:1007700001F204986FF0030101EA53010144086A91
:1007800010430862FFE7FFE70298012100F0DAFB5F
:100790000299086820F0010008600299086820F0BA
:1007A000100008600298C06A400800900198012873
:1007B0001DD1FFE70299886920F0700088610299D5
:1007C000886940F0600088610299886940F00800FB
:1007D00088610098029948630299086A20F0020033
:1007E00008620299086A40F00100086265E0019819
:1007F00002281DD1FFE70299886920F4E040886152
:100800000299886940F4C04088610299886940F47F
:10081000006088610098029988630299086A20F054
:10082000200008620299086A40F01000086243E064
:10083000019803281DD1FFE70299C86920F07000D4
:10084000C8610299886940F06000886102998869EE
:1008500040F00800886100980299C8630299086A0C
:1008600020F4007008620299086A40F480700862FF
:1008700021E0019804281DD1FFE70299C86920F4FE
:10088000E040C8610299886940F4C04088610299DB
:10089000886940F4006088610098029908640299B0
:1008A000086A20F4005008620299086A40F48050F7
:1008B0000862FFE7FFE7FFE7FFE702980021C4F2C5
:1008C0000101884206D1FFE70299486C40F40040DC
:1008D0004864FFE70299086840F00100086006B02C
:1008E00080BD000080B588B08DF81F00069105928C
:1008F0009DF91F0004A903AA00F0C2FC049800217E
:10090000C4F20201884256D1FFE7039802900F28F3
:100910004FD80299DFE801F008104D4D4D18204DD9
:100920002A333C4D4D4D4D4506994FF080400860AF
:100930000599012008603DE006994FF0804008606D
:1009400005990220086035E006994FF08040086064
:100950000599012008602DE0069940F20040C4F29C
:100960000000086005990120086023E00699002036
:10097000C4F2010008600599012008601AE0069998
:100980000020C4F20100086005990220086011E00F
:1009900006990020C4F20100086005990320086050
:1009A00008E006994FF08040086005990120086032
:1009B00000E0FFE7A1E0049840F20041C4F2020128
:1009C00088425BD1FFE7039803380146019107286D
:1009D00052D80199DFE801F0040C16202A343E4871
:1009E00006994FF08040086005990220086044E0B5
:1009F000069940F20040C4F2000008600599012009
:100A000008603AE0069940F20040C4F20000086035
:100A100005990220086030E0069940F60000C4F213
:100A20000000086005990120086026E0069940F65C
:100A30000000C4F2000008600599022008601CE074
:100A4000069940F60000C4F20000086005990320F2
:100A5000086012E0069940F60000C4F20000086049
:100A600005990420086008E006994FF0804008606E
:100A700005990320086000E0FFE73DE0049840F698
:100A80000001C4F20201884235D1FFE7039806381D
:100A90000146009103282CD80099DFE801F0020CF0
:100AA0001620069940F20040C4F200000860059943
:100AB000012008601EE0069940F20040C4F20000E8
:100AC000086005990220086014E0069940F2004091
:100AD000C4F2000008600599032008600AE0069946
:100AE00040F20040C4F2000008600599042008604C
:100AF00000E0FFE7FFE7FFE7FFE708B080BD000089
:100B000080B58CB08DF82F000A919DF92F0009A9AE
:100B100008AA00F0B5FB9DF92F0007A906AAFFF768
:100B2000E1FE002005900798806A049043F60800D3
:100B3000C4F2020000688007002806D5FFE744F6EB
:100B40002000C0F2010005900CE043F60800C4F25A
:100B500002000068002020B9FFE74FF47A500590AA
:100B6000FFE7FFE7059804990131B0FBF1F000EED3
:100B7000100AB8EE400A8DED030A9DED0A0AB8EEA0
:100B8000400A9DED031A20EE010ABFEE001A30EE76
:100B9000010ABCEEC00A8DED020A06980138014632
:100BA0000191032814D80199DFE801F002060A0E2A
:100BB0000298079948630CE002980799486308E097
:100BC00002980799486304E002980799486300E097
:100BD000FFE70CB080BD000043F63001C4F2020113
:100BE000086840F0010008607047000043F63001DB
:100BF000C4F20201086840F002000860704700007B
:100C000043F63001C4F20201086840F004000860B5
:100C10007047000043F63001C4F20201086840F05A
:100C2000040008607047000043F63001C4F202017E
:100C3000086840F0040008607047000043F6300187
:100C4000C4F20201086840F0040008607047000028
:100C500081B043F60041C4F20201086820F00700A9
:100C60000860086840F00200086043F60001C4F222
:100C70000201086840F001000860FFE743F6000049
:100C8000C4F2020000688007002801D4FFE7F5E7FE
:100C900043F60001C4F20201086820F08070086089
:100CA00043F60402C4F202020092106820F48000AD
:100CB0001060106810601068542363F38E10106089
:100CC0001068082363F305001060106820F44030BA
:100CD0001060086840F080700860FFE743F600008D
:100CE000C4F20200006800F000710020B0EB516F08
:100CF00001D0FFE7F2E743F60801C4F202010868F9
:100D000020F003000860086840F002000860FFE778
:100D100043F60800C4F20200006800F00C00082846
:100D200001D0FFE7F4E743F60801C4F202010868C6
:100D300020F0F0000860086820F4E05008600868BF
:100D400040F480500860086820F46040086040F279
:100D50000001C2F200014BF60050C0F201500860E1
:100D600001B0704780B500F001F880BD40F270011D
:100D7000C2F2000108680130086070474EF68851E1
:100D8000CEF20001086840F470000860704700006F
:100D900080B582B04FF0804000F0C4FA38B3FFE76E
:100DA00040F26801C2F200010868013008600020CA
:100DB0000190FFE70198042814DCFFE79DED010A8C
:100DC000B8EEC00A9FED0B1A20EE010A0020FFF7D3
:100DD00033FC4FF47A7000F035FAFFE701980130E8
:100DE0000190E7E74FF0804000F022FAFFE702B001
:100DF00080BD00BFCDCC4C3E80B540F20040C4F277
:100E0000000000F08FFAE8B1FFE740F26800C2F29C
:100E10000000016801310160006841F289318842B7
:100E200009D3FFE7FFF700FC40F26801C2F20001BE
:100E300000200860FFE740F20040C4F2000000F02C
:100E4000F7F9FFE780BD000081B000900099C86805
:100E500040F00100C86001B07047000080B584B068
:100E6000039002910398029900F06CF80398FFF741
:100E7000EBFF0020019003980021C4F20101884299
:100E800003D1FFE71920019050E00398B0F1804FA3
:100E900003D1FFE71C20019047E0039840F2004196
:100EA000C4F20001884203D1FFE71D2001903BE01E
:100EB000039840F60001C4F20001884203D1FFE725
:100EC0001E2001902FE0039840F60041C4F200017B
:100ED000884203D1FFE73220019023E0039844F2D7
:100EE0000001C4F20101884203D1FFE718200190FC
:100EF00017E0039844F20041C4F20101884203D193
:100F0000FFE7192001900BE0039844F60001C4F2BA
:100F10000101884203D1FFE71A200190FFE7FFE7B4
:100F2000FFE7FFE7FFE7FFE7FFE7FFE79DF90400C3
:100F300000F022F99DF90400022100F057F904B0F5
:100F400080BD000080B582B0019000910198002121
:100F5000C4F20101884209D1FFE743F64401C4F21B
:100F60000201086840F00100086068E00198B0F1F3
:100F7000804F09D1FFE743F64001C4F2020108683F
:100F800040F00100086059E0019840F20041C4F2CD
:100F90000001884209D1FFE743F64001C4F2020193
:100FA000086840F00200086047E0019840F6000140
:100FB000C4F20001884209D1FFE743F64001C4F2C0
:100FC0000201086840F00400086035E0019840F62E
:100FD0000041C4F20001884209D1FFE743F6440111
:100FE000C4F20201086840F00800086023E001989C
:100FF00044F20001C4F20101884209D1FFE743F63F
:101000004401C4F20201086840F48030086011E035
:10101000019844F60001C4F20101884209D1FFE7BA
:1010200043F64401C4F20201086840F4003008604D
:10103000FFE7FFE7FFE7FFE7FFE7FFE7FFE70198CD
:10104000009900F00DF80199086800F004000860AC
:101050000199086840F00100086002B080BD0000FE
:1010600086B0059004915420ADF80E000020ADF834
:101070000C00BDF80E0005998862BDF80C0001381F
:101080000599C86243F60800C4F2020000688007B0
:10109000002806D5FFE74BF60050C0F20150029041
:1010A0000EE043F60800C4F202000068002030B9E8
:1010B000FFE742F20040C0F2F4000290FFE7FFE7D2
:1010C0000598B0F1804F08D0FFE7059840F6004141
:1010D000C4F20001884219D1FFE70298400945F6A1
:1010E000C521C0F67C21A0FB0110C009ADF80E009F
:1010F0000498642148430190BDF80E000138059919
:101100008862019801380599C8621BE0029840097D
:1011100045F6C521C0F67C21A0FB0110C009ADF841
:101120000E00049800EB80004000ADF80200BDF80E
:101130000E00013805998862BDF802000138059952
:10114000C862FFE706B0704781B08DF803009DF9D3
:10115000030000280ED4FFE79DF9031001F01F02E1
:10116000012090404A094EF20011CEF2000141F8F0
:101170002200FFE701B0704781B08DF803009DF9B0
:10118000030000280ED4FFE79DF9031001F01F02B1
:10119000012090404A094EF20011CEF2000141F8C0
:1011A0002200FFE701B0704782B08DF80700009180
:1011B0009DF9070000280AD4FFE7009800019DF977
:1011C00007104EF20042CEF2000288540BE0009865
:1011D00000019DF8071001F00F014EF61452CEF2F7
:1011E00000028854FFE702B07047000082B08DF81B
:1011F000070000919DF9070000280AD4FFE7009836
:1012000000019DF907104EF20042CEF20002885410
:101210000BE0009800019DF8071001F00F014EF659
:101220001452CEF200028854FFE702B0704700006B
:1012300081B000900099086920F00100086101B0B8
:101240007047000082B0019040F27000C2F20000CE
:1012500000680090FFE740F27000C2F200000068F2
:101260000099401A0199884201D2FFE7F3E740F262
:101270007001C2F200010020086002B07047000057
:1012800085B08DF81300039102929DF8130000F0D1
:101290000F0001900198029908609DF91300001158
:1012A0000090009830B9FFE703990020C4F20200D3
:1012B000086035E00098012807D1FFE7039940F264
:1012C0000040C4F20200086029E00098022807D11B
:1012D000FFE7039940F60000C4F2020008601DE039
:1012E0000098032807D1FFE7039940F60040C4F2B5
:1012F0000200086011E00098072807D1FFE7039972
:1013000041F60040C4F20200086005E003990020A5
:10131000C4F202000860FFE7FFE7FFE7FFE7FFE72F
:1013200005B0704781B000900098006900F001009E
:1013300001B0704780B582B00020019000F004F841
:10134000FFE700F0E1F9FCE780B588B0FFF780FC2B
:101350000020C4F202000290052101220392FFF74F
:10136000C9F800200790FFF7BBF9029807990222FD
:101370000692FFF7BFF8039940F20040C4F2000064
:101380000090FFF76BFD0098FFF75EFD079A40F6AF
:101390000000C4F2020004900D210591FFF7AAF8A5
:1013A0000298039A0721019100F0A2F9039A40F2F2
:1013B0000040C4F20200062100F09AF90199039A54
:1013C000049800F095F90298039A092100F090F929
:1013D0000598FEF7B5FF0498059B079A1946FEF796
:1013E000BFFF04980599069AFFF7EAF807984FF4AB
:1013F000FA61FFF785FB08B080BD000080B5A4B09E
:101400002390239800BBFFE70020C4F20200219044
:101410000721209100222292FFF7EAF8229A40F257
:101420000040C4F202000621FFF7E2F82099229A58
:1014300040F60000C4F20200FFF7DAF82198229A81
:101440000921FFF7D5F850E12398012820D1FFE7C3
:101450000020C4F202001E9007211D910122FFF717
:10146000C7F840F20040C4F20200062100221F9299
:10147000FFF7BEF81D991F9A40F60000C4F2020063
:10148000FFF7B6F81E981F9A0921FFF7B1F82BE174
:101490002398022820D1FFE70020C4F202001B900D
:1014A00007211A9100221C92FFF7A2F840F2004097
:1014B000C4F2020006210122FFF79AF81A991C9A39
:1014C00040F60000C4F20200FFF792F81B981C9A45
:1014D0000921FFF78DF806E12398032821D1FFE7C2
:1014E0000020C4F2020018900721179101221692E1
:1014F000FFF77EF8169A40F20040C4F2020006217F
:10150000FFF776F8179940F60000C4F202000022B7
:101510001992FFF76DF81898199A0921FFF768F8E2
:10152000E0E02398042820D1FFE70020C4F2020065
:1015300014900721139100221592FFF759F8159A7C
:1015400040F20040C4F202000621FFF751F813995F
:1015500040F60000C4F202000122FFF749F8149897
:10156000159A0921FFF744F8BBE02398052821D1FB
:10157000FFE70020C4F20200119007210F91012221
:101580001092FFF735F840F20040C4F20200062145
:1015900000221292FFF72CF80F99109A40F60000E3
:1015A000C4F20200FFF724F81198129A0921FFF7FC
:1015B0001FF895E02398062821D1FFE70020C4F208
:1015C00002000D9007210B9100220E92FFF710F8F8
:1015D00040F20040C4F20200062101220C92FFF703
:1015E00007F80B990C9A40F60000C4F20200FEF7CF
:1015F000FFFF0D980E9A0921FEF7FAFF6FE023987E
:10160000072820D1FFE70020C4F202000A9007213A
:10161000089101220992FEF7EBFF099A40F200407F
:10162000C4F202000621FEF7E3FF0899099A40F68A
:101630000000C4F20200FEF7DBFF0A980921002235
:10164000FEF7D6FF4AE02398082820D1FFE70020C4
:10165000C4F2020007900721059100220692FEF7CE
:10166000C7FF069A40F20040C4F202000621FEF7CE
:10167000BFFF0599069A40F60000C4F20200FEF78B
:10168000B7FF079809210122FEF7B2FF25E0239852
:10169000092821D1FFE70020C4F2020003900721AE
:1016A000019101220492FEF7A3FF40F20040C4F230
:1016B0000200062100220292FEF79AFF0199029A87
:1016C00040F60000C4F20200FEF792FF0398049A6D
:1016D0000921FEF78DFFFFE7FFE7FFE7FFE7FFE7E1
:1016E000FFE7FFE7FFE7FFE7FFE724B080BD00006B
:1016F00080B584B003900291019203980299019AF7
:10170000FEF7F8FE04B080BD80B540F26C00C2F276
:1017100000000068FFF772FE80BDF1EE100A4FF680
:10172000FF71C0F2C03120EA010040F04070E1EEEC
:10173000100A704758170008000000200800000039
:10174000D40100086017000808000020700600009F
:10175000F0010008000000000024F4000000000078
:040000050800019955
:00000001FF
